:1000000003308A005E2B0000FF00030E8301A10075
:100010007F08A0000A08A7008A01A00E0408A20019
:100020007708A3007808A4007908A5007A08A6003C
:10003000831383128B1E1E280B19262A2208840084
:100040002308F7002408F8002508F9002608FA001C
:1000500027088A00210E8300FF0E7F0E09000A1078
:100060008A100A11363E03188A0A820000340034CE
:10007000003400340034003400345F340034003481
:100080000034073400340734003414347F3414341B
:100090007F34143424342A347F342A341234233401
:1000A00013340834643462343634493455342234D9
:1000B00050340034053403340034003400341C342C
:1000C0002234413400340034413422341C340034AE
:1000D000143408343E3408341434083408343E34BC
:1000E00008340834003450343034003400340834D8
:1000F0000834083408340834003460346034003480
:100100000034203410340834043402343E34513482
:10011000493445343E34003442347F344034003472
:100120004234613451344934463421344134453405
:100130004B3431341834143412347F3410342734AF
:1001400045344534453439343C344A3449344934EF
:1001500030340134713409340534033436344934CD
:1001600049344934363406344934493429341E3448
:1001700000343634363400340034003456343634E7
:10018000003400340834143422344134003414343C
:1001900014341434143414340034413422341434F8
:1001A00008340234013451340934063432344934C9
:1001B000793441343E347E341134113411347E3478
:1001C0007F3449344934493436343E34413441343F
:1001D000413422347F344134413422341C347F345E
:1001E00049344934493441347F34093409340934B9
:1001F00001343E344134493449347A347F3408344C
:10020000083408347F34003441347F3441340034BE
:100210002034403441343F3401347F3408341434C2
:10022000223441347F3440344034403440347F34CD
:1002300002340C3402347F347F34043408341034F4
:100240007F343E344134413441343E340A148A1000
:100250000A112D3E03188A0A82007F3409340934BA
:10026000093406343E344134513421345E347F3411
:10027000093419342934463446344934493449342C
:100280003134013401347F34013401343F3440349B
:10029000403440343F341F342034403420341F3441
:1002A0003F344034383440343F34633414340834F9
:1002B0001434633407340834703408340734613438
:1002C000513449344534433400347F34413441346B
:1002D00000340234043408341034203400344134FF
:1002E00041347F34003404340234013402340434A1
:1002F000403440344034403440340034013402341B
:1003000004340034203454345434543478347F3436
:100310004834443444343834383444344434443431
:10032000203438344434443448347F3438345434FA
:1003300054345434183408347E34093401340234CB
:100340000C345234523452343E347F340834043442
:1003500004347834003444347D3440340034203460
:10036000403444343D3400347F3410342834443431
:100370000034003441347F34403400347C3404345D
:100380001834043478347C34083404340434783435
:10039000383444344434443438347C3414341434DD
:1003A0001434083408341434143418347C347C3451
:1003B0000834043404340834483454345434543441
:1003C000203404343F344434403420343C3440340A
:1003D000403420347C341C342034403420341C34E9
:1003E0003C344034303440343C34443428341034C9
:1003F000283444340C345034503450343C34443475
:10040000643454344C344434003408343634413485
:100410000034003400347F3400340034003441347C
:1004200036340834003410340834083410340834B6
:10043000783446344134463478342010201020106B
:10044000201020102010201000002000AE0A0319F8
:10045000AF0A2E08E83C031D382A2F08033C031D71
:10046000382AAF01AE0183160512103083128506BB
:100470000B118A111E28D432733A6510CE37EB3433
:10048000E119B318300030308400831300080319D9
:10049000572A0330F800F701F70B4C2AF80B4B2AC8
:1004A000E330F700F70B522A0000800B492A0800BE
:1004B0001308350893008316140C031C5C2A83125E
:1004C000080083168613831286133308B50058225A
:1004D0000800310807394038B200B3006122300803
:1004E0007F398038B200B30061220800831686137A
:1004F000831286173408B500582208008316861325
:100500008312861783160610831206100A30B00075
:10051000432283160610831206142130B300612291
:10052000C230B30061221330B30061222030B30027
:1005300061220930B3006122B001B10169220130AA
:10054000AD00F830AC00AC08031DA92AAD080319B2
:10055000B02AB40176222C080319AD03AC03A32AF8
:100560000830B30061220C30B3006122752BF70113
:10057000F801360803103718F707F70CF80CB7180E
:10058000F707F70CF80C3719F707F70CF80CB71941
:10059000F707F70CF80C371AF707F70CF80CB71A2F
:1005A000F707F70CF80C371BF707F70CF80CB71B1D
:1005B000F707F70CF80C08003308A90029081F3CBE
:1005C0000318172B29087F3C031C172BA8012808A8
:1005D000043C031C152B29084F3C031CFE2A290848
:1005E000E03EB500B6000530B700B7227808AA0093
:1005F00028082A072F20F800AB00102B29084F3CB1
:100600000318102B2908B03EB500B6000530B7001E
:10061000B7227808AA0028082A072621F800AB008C
:100620002B08B4007622A80AE72AB4017622080033
:10063000831603178C170C140000000083120C089B
:100640007F3903195C2B0313B00003170D08031344
:10065000B10003170F080313B2003008B300DC2207
:10066000310803178D000313320803178F00831618
:100670008C170C140000000083120C0D0E0D7F3936
:1006800003195C2B0313B00003170D080313B1000B
:1006900003170F080313B2003008B300DC2231083F
:1006A00003178D000313320803178F008D0A0319F7
:1006B0008F0A0313182B03170313992B8401831339
:1006C0001F30830583161F149F141F159F1183125B
:1006D0009412831606118614061221308312940098
:1006E00040308316940083127E2A83161F149F14B1
:1006F0001F159F1183121F1090010030F8001F0872
:10070000C73978049F0083160108C0390138810079
:1007100083128B16C0308B046430B0004322B001CA
:10072000B10169223B3003178D0002308F000313A3
:06073000182B8C2B630066
:02400E002A3F47
:00000001FF
;PIC16F819
;CRC=4781  CREATED="08-abr-14 11:54"
