:100000000C9412030C942F030C942F030C942F03C5
:100010000C942F030C942F030C942F030C942F0398
:100020000C942F030C942F030C942F030C942F0388
:100030000C942F030C942F030C942F030C942F0378
:100040000C942F030C942F030C942F030C942F0368
:100050000C942F030C942F030C942F030C942F0358
:100060000C942F030C942F030C942F030C942F0348
:100070000C942F030C942F030C942F030C942F0338
:100080000C942F030C942F030C942F0300000000FA
:1000900000000000000000000000000000183C3CD0
:1000A0003C1818001818000000666666240000005E
:1000B0000000000000000000006C6CFE6C6C6CFE28
:1000C0006C6C00000018187CC6C2C07C0686C67C1A
:1000D00018180000000000C2C60C183066C60000E8
:1000E000000000386C6C3876DCCCCC760000001850
:1000F0001818300000000000000000000000000C94
:10010000183030303030180C000000000030180C6F
:100110000C0C0C0C183000000000000000663CFFC6
:100120003C6600000000000000000018187E18184F
:100130000000000000000000000000000018181877
:10014000300000000000000000FE00000000000081
:10015000000000000000000000001818000000006F
:100160000002060C183060C080000000000000385B
:100170006CC6C6D6C6C66C380000000000183878B9
:1001800018181818187E00000000007CC6060C180D
:100190003060C6FE00000000007CC606063C060675
:1001A000C67C00000000000C1C3C6CCCFE0C0C1E3D
:1001B0000000000000FEC0C0C0FC0606C67C0000B7
:1001C0000000003860C0C0FCC6C6C67C000000004D
:1001D00000FEC6060C183030303000000000007CF5
:1001E000C6C6C67CC6C6C67C00000000007CC6C66B
:1001F000C67E06060C7800000000000018180000FB
:100200000018180000000000000018180000001876
:10021000183000000000000C183060C06030180C6E
:1002200000000000000000007E00007E00000000D2
:100230000000006030180C060C1830600000000050
:10024000007CC6C60C181800181800000000007CBE
:10025000C6C6DEDEDEDCC07C000000000010386CAC
:10026000C6C6FEC6C6C60000000000FC6666667C08
:10027000666666FC00000000003C66C2C0C0C0C2EA
:10028000663C0000000000F86C66666666666CF806
:100290000000000000FE66626878686266FE00008A
:1002A000000000FE66626878686060F00000000090
:1002B000003C66C2C0C0DEC6663A0000000000C650
:1002C000C6C6C6FEC6C6C6C600000000003C18185A
:1002D00018181818183C00000000001E0C0C0C0C1C
:1002E0000CCCCC780000000000E6666C6C786C6C7E
:1002F00066E60000000000F060606060606266FE1C
:100300000000000000C6EEFED6C6C6C6C6C6000087
:10031000000000C6E6F6FEDECEC6C6C6000000003F
:10032000007CC6C6C6C6C6C6C67C0000000000FC6F
:100330006666667C606060F000000000007CC6C6F7
:10034000C6C6C6D6DE7C0E00000000FC6666667C73
:100350006C6666E600000000007CC6C660380CC60D
:10036000C67C00000000007E7E5A18181818183C41
:100370000000000000C6C6C6C6C6C6C6C67C0000D1
:10038000000000C6C6C6C6C6C66C38100000000015
:1003900000C6C6C6C6D6D6FE6C6C0000000000C6FD
:1003A000C6C67C387CC6C6C600000000006666660D
:1003B000663C1818183C0000000000FEC68C18307F
:1003C00060C2C6FE00000000003C303030303030EB
:1003D000303C000000000080C0E070381C0E0602B7
:1003E00000000000003C0C0C0C0C0C0C0C3C000041
:1003F00010386CC600000000000000000000000083
:100400000000000000000000000000FF0030180C99
:1004100000000000000000000000000000000000DC
:10042000780C7CCCCC760000000000E06060786C3A
:100430006666667C00000000000000007CC6C0C04C
:10044000C67C00000000001C0C0C3C6CCCCCCC76B4
:1004500000000000000000007CC6FEC0C67C00005A
:100460000000001C3632307C303030780000000054
:100470000000000076CCCCCC7C0CCC78000000E0F6
:1004800060606C76666666E6000000000018180082
:1004900038181818183C00000000000606000E0668
:1004A00006060666663C000000E06060666C786CDC
:1004B00066E6000000000038181818181818183CD4
:1004C0000000000000000000ECFED6D6D6D60000EA
:1004D000000000000000DC66666666660000000042
:1004E000000000007CC6C6C6C67C000000000000FC
:1004F0000000DC6666667C6060F0000000000000C2
:1005000076CCCCCC7C0C0C1E000000000000DC760D
:10051000666060F000000000000000007CC6701CF7
:10052000C67C0000000000103030FC303030361C3B
:100530000000000000000000CCCCCCCCCC76000049
:10054000000000000000C6C6C66C381000000000A5
:1005500000000000C6C6D6D6FE6C000000000000F9
:100560000000C66C38386CC60000000000000000B7
:10057000C6C6C6C67E060C78000000000000FECC91
:10058000183066FE00000000000E181818701818C9
:10059000180E00000000001818181818181818185D
:1005A0000000000000701818180E181818700000CD
:1005B0000076DC00000000000000000000000000E9
:1005C00000000010386CC6C6FE0000004C0153004D
:1005D00002B4B0020011273C4C5D6C78849099A263
:1005E000AAB2BAC0C7CCD2C7DCE0E4E8EDF0F4F7B9
:1005F000FBFE010306090B0E10131517191C1E2014
:10060000222426282A2C2D2F31333537393B3D3FE4
:100610004244475E13232D33383C404346484A4CFE
:100620004E50640011241FBECFEFD0E1DEBFCDBF1E
:1006300011E0A0E0B1E0EEE7FDE000E00BBF02C09A
:1006400007900D92A831B107D9F711E0A8E1B1E008
:1006500001C01D92AA31B107E1F70C9486030C94F6
:100660000000CF93DF93DB0174E060E0C8E0D1E0ED
:10067000715050E03A912A9103C05F5F821B930B47
:1006800082179307D0F7450F31F0FD01E60FF11DFA
:10069000505D50836F5F772359F7ED01C60FD11D71
:1006A000805D88836F5FA60FB11D7C93DF91CF9132
:1006B0000895FF920F931F93CF93DF93F82E062F89
:1006C000EA0110E088818823D9F0A0E0B0E0FD01C4
:1006D000EC0FFD1FAA0FBB1FAA0FBB1FAA0FBB1F4A
:1006E00021E04081602F8F2D8A0F0E9408061F5F36
:1006F000A12FBB27FD01EC0FFD1F2081222339F71D
:10070000DF91CF911F910F91FF900895CBEED0E133
:10071000DEBFCDBF28E0C22ED12CCC0EDD1E0DE0F9
:10072000E8E0F1E0D60101900D920A95E1F70E9410
:100730002D040E9463048FEF9FEF90931601809326
:100740001501109219011092180180E897E00E949B
:10075000A705AA24BB247E010894E11CF11C4501D5
:100760003501C50161E014E050E0A8E0B1E01150AE
:1007700040E03E912E9103C04F5F821B930B821786
:100780009307D0F7640F31F0F701E50FF11D405DDD
:1007900040835F5F112359F7F701E50FF11D805D7D
:1007A00080835F5FF701E50FF11D1083C30168EAE5
:1007B00070E00E94AB06082F29812223B9F0A0E047
:1007C000B0E0FD01EE0DFF1D21E04081602F8A2F7A
:1007D000880F880F880F0E9408061F5FA12FBB2774
:1007E000FD01EE0DFF1D3081332359F7C40168EA86
:1007F00070E00E94AB06082F10E048854423D9F032
:10080000A0E0B0E0FD01EC0DFD1DAA0FBB1FAA0F7B
:10081000BB1FAA0FBB1F21E04081602F8A2F885D7C
:100820000E9408061F5FA12FBB27FD01EC0DFD1DD7
:100830005081552339F7B0921901A09218010894FC
:10084000A11CB11C6EE070E0660E771E860E971E2E
:1008500080E090E00197F1F784CFC698BE9AC29AE3
:10086000BA9AC098B89AC198B99AC39AC79ABF9AC7
:1008700021E52DB981E08EB98EB108958FB9779BAE
:10088000FECF0895C798000000008FB9779BFECF78
:100890001FB8779BFECF0000C79A08958FB9779B4A
:1008A000FECF1FB8779BFECF08959C01832F992719
:1008B0008FB9779BFECF2FB9779BFECF0895C09A53
:1008C0000000C0980895C698C09AC79AE0E4FCE971
:1008D0003197F1F7C69AA0E0B0E01197F1F7C09810
:1008E000C798000000008CEB8FB9779BFECF1FB834
:1008F000779BFECF0000C79A2AE22FB9779BFECFE5
:100900001FB8779BFECFC09A0000C098C798000020
:1009100000003AEC3FB9779BFECF1FB8779BFECF24
:100920000000C79A90E0E92FFF27E453FA4F449163
:100930004FB9779BFECF1FB8779BFECF9F5F993053
:1009400090F3C798000000005BEC5FB9779BFECF87
:100950001FB8779BFECF0000C79A90E0E92FFF27D2
:10096000EB52FA4F64916FB9779BFECF1FB8779B1C
:10097000FECF1FB8779BFECF1FB8779BFECF9F5F40
:100980009D3160F390E021E0E92FFF27EE50FA4F10
:1009900074917FB9779BFECF1FB8779BFECF2FB99D
:1009A000779BFECF1FB8779BFECF9F5F923260F39D
:1009B000C798000000009CEC9FB9779BFECF1FB842
:1009C000779BFECF0000C79A90E0E92FFF27EC5EEF
:1009D000F94FB491BFB9779BFECF1FB8779BFECF7D
:1009E0009F5F9F3090F3C79800000000FDECFFB9B7
:1009F000779BFECF1FB8779BFECF0000C79A1FB82A
:100A0000779BFECF1FB8779BFECFC79800000000F2
:100A100080ED8FB9779BFECF1FB8779BFECF00008C
:100A2000C79A1FB8779BFECF1FB8779BFECFC7989A
:100A300000000000A4E9AFB9779BFECF1FB8779BF9
:100A4000FECF0000C79AC7980000000025E12FB92B
:100A5000779BFECF1FB8779BFECF0000C79A38E088
:100A60003FB9779BFECF1FB8779BFECF41E04FB9D0
:100A7000779BFECF1FB8779BFECF5BE85FB9779B74
:100A8000FECF1FB8779BFECF61E06FB9779BFECF9B
:100A90001FB8779BFECFC7980000000075E77FB9AD
:100AA000779BFECF1FB8779BFECF0000C79A1FB879
:100AB000779BFECF1FB8779BFECF9FE89FB9779BB0
:100AC000FECF1FB8779BFECFC79800000000BAEAA0
:100AD000BFB9779BFECF1FB8779BFECF0000C79AA8
:100AE0001FB8779BFECF1FB8779BFECFEFEAEFB919
:100AF000779BFECF1FB8779BFECFFFEAFFB9779BAE
:100B0000FECF1FB8779BFECF83E08FB9779BFECFD8
:100B10001FB8779BFECFC79800000000ABEAAFB9C3
:100B2000779BFECF1FB8779BFECF0000C79A1FB8F8
:100B3000779BFECF1FB8779BFECFC7982FEA2FB9C0
:100B4000779BFECF1FB8779BFECFC09A0895BC015C
:100B5000C098C7980000000085E18FB9779BFECF51
:100B60001FB8779BFECF0000C79A28E02FB9779B6C
:100B7000FECF1FB8779BFECF31E03FB9779BFECF0A
:100B80001FB8779BFECF4BE84FB9779BFECF1FB8BE
:100B9000779BFECF51E05FB9779BFECF1FB8779B65
:100BA000FECFC7980000000095E79FB9779BFECF66
:100BB0001FB8779BFECF0000C79A1FB8779BFECF68
:100BC0001FB8779BFECFAFEAAFB9779BFECF1FB8B8
:100BD000779BFECFC79800000000BCE5BFB9779BAC
:100BE000FECF1FB8779BFECF0000C79A20E030E011
:100BF000472F55274FB9779BFECF6FB9779BFECF15
:100C00002F5F3F4F8AE5203C3807A0F3C09A089534
:100C1000FF920F931F93CF93DF93982F242FC098A9
:100C2000C7980000000085E18FB9779BFECF1FB801
:100C3000779BFECF0000C79A985F9FB99850779B2B
:100C4000FECF1FB8779BFECF01E00FB9779BFECF99
:100C50001FB8779BFECF915F9FB9779BFECF1FB8E0
:100C6000779BFECF11E01FB9779BFECF1FB8779B14
:100C7000FECFC7980000000035E73FB9779BFECF55
:100C80001FB8779BFECF0000C79A6FB9779BFECF46
:100C90001FB8779BFECF623A08F04BC0BEE0FB2E38
:100CA000635F6FB9779BFECF1FB8779BFECFC79866
:100CB000000000005CE55FB9779BFECF1FB8779B13
:100CC000FECF0000C79A40E04F1508F03DC06EE02F
:100CD000269F80011124C0911801D0911901A09183
:100CE0001501B0911601F801E40FF11DE453F14034
:100CF000749160E857E0272F262389F09E018D2FFD
:100D000099278FB9779BFECF2FB9779BFECF66953A
:100D1000515057FFF0CF4F5F4F1528F315C09D017D
:100D20008B2F99278FB9779BFECF2FB9779BFECF5B
:100D3000EECFA0EBFA2EF61A4FEA4FB9779BFECF13
:100D40001FB8779BFECFB3CFC09ADF91CF911F9191
:100D50000F91FF900895AA1BBB1B51E107C0AA1F6A
:100D6000BB1FA617B70710F0A61BB70B881F991F4C
:0E0D70005A95A9F780959095BC01CD01089584
:100D7E000A006400E80310272E205A65696C65206E
:080D8E004C32530000FFFF008E
:00000001FF
