:1000000018308A0000280000FF00030E8301A100C1
:100010000A08A0008A010408A2007708A300780853
:10002000A4007908A5007A08A6007B08A70083131E
:1000300083128B1E1D280B193028220884002308E8
:10004000F7002408F8002508F9002608FA00270818
:10005000FB0020088A00210E8300FF0E7F0E09009E
:100060008A110A12A32EFB0000307A078A007B084F
:100070003C3E03188A0A8200003400340034003405
:1000800000340034003400340034003400340034D0
:1000900000343034783478347834303430340034C8
:1000A000303430340034003400346634663466341E
:1000B000243400340034003400340034003400347C
:1000C00000346C346C34FE346C346C346C34FE3478
:1000D0006C346C3400340034303430347C34C0340C
:1000E000C03478340C340C34F834303430340034C8
:1000F000003400340034C434CC3418343034603428
:10010000CC348C340034003400347034D834D834D7
:100110007034FA34DE34CC34DC34763400340034D9
:10012000003430343034303460340034003400343F
:10013000003400340034003400340C3418343034CB
:10014000603460346034303418340C34003400349B
:1001500000346034303418340C340C340C3418341B
:1001600030346034003400340034003400346634F9
:100170003C34FF343C346634003400340034003402
:10018000003400340034183418347E3418341834F1
:1001900000340034003400340034003400340034BF
:1001A00000340034003400343834383460340034DF
:1001B00000340034003400340034FE3400340034A1
:1001C000003400340034003400340034003400348F
:1001D000003400340034003438343834003400340F
:1001E00000340034023406340C34183430346034B3
:1001F000C03480340034003400347C34C634CE340F
:10020000DE34D634F634E634C6347C34003400347C
:10021000003410343034F03430343034303430344E
:100220003034FC340034003400347834CC34CC34F2
:100230000C34183430346034CC34FC3400340034A2
:1002400000347834CC340C340C3438340C340C3462
:10025000CC3478340034003400340C341C343C3456
:100260006C34CC34FE340C340C341E340034003482
:100270000034FC34C034C034C034F8340C340C3492
:10028000CC34783400340034003438346034C03432
:10029000C034F834CC34CC34CC347834003400342A
:1002A0000034FE34C634C63406340C3418343034CA
:1002B000303430340034003400347834CC34CC342E
:1002C000CC347834CC34CC34CC347834003400346E
:1002D00000347834CC34CC34CC347C3418341834F6
:1002E0003034703400340034003400340034383496
:1002F00038340034003438343834003400340034B6
:1003000000340034003438343834003400343834A5
:10031000383418343034003400340C341834303469
:100320006034C0346034303418340C340034003459
:1003300000340034003400347E3400347E34003421
:100340000034003400340034003460343034183465
:100350000C3406340C341834303460340034003437
:1003600000347834CC340C34183430343034003425
:10037000303430340034003400347C34C634C63475
:10038000DE34DE34DE34C034C0347C340034003437
:10039000003430347834CC34CC34CC34FC34CC34E9
:1003A000CC34CC34003400340034FC34663466344D
:1003B00066347C34663466346634FC34003400348D
:1003C00000343C346634C634C034C034C034C6341F
:1003D00066343C34003400340034F8346C34663411
:1003E00066346634663466346C34F8340034003471
:1003F0000034FE346234603464347C3464346034F9
:100400006234FE34003400340034FE346634623426
:1004100064347C34643460346034F0340034003448
:1004200000343C346634C634C034C034CE34C634B0
:1004300066343E34003400340034CC34CC34CC3414
:10044000CC34FC34CC34CC34CC34CC340034003414
:100450000034783430343034303430343034303464
:10046000303478340034003400341E340C340C340E
:100470000C340C34CC34CC34CC34783400340034E8
:100480000034E63466346C346C3478346C346C3458
:100490006634E634003400340034F03460346034C0
:1004A00060346034623466346634FE3400340034C0
:1004B0000034C634EE34FE34FE34D634C634C6348A
:1004C000C634C634003400340034C634C634E6348E
:1004D000F634FE34DE34CE34C634C6340034003450
:1004E000003438346C34C634C634C634C634C634EA
:1004F0006C343834003400340034FC3466346634F0
:1005000066347C34603460346034F0340034003459
:10051000003438346C34C634C634C634CE34DE3499
:100520007C340C341E3400340034FC3466346634BD
:1005300066347C346C3466346634E634003400341B
:1005400000347834CC34CC34C03470341834CC34E7
:10055000CC347834003400340034FC34B4343034D7
:100560003034303430343034303478340034003483
:100570000034CC34CC34CC34CC34CC34CC34CC3447
:10058000CC347834003400340034CC34CC34CC3423
:10059000CC34CC34CC34CC347834303400340034E3
:1005A0000034C634C634C634C634D634D6346C347B
:1005B0006C346C34003400340034CC34CC34CC345F
:1005C000783430347834CC34CC34CC340034003407
:1005D0000034CC34CC34CC34CC3478343034303473
:1005E00030347834003400340034FE34CE3498345F
:1005F0001834303460346234C634FE34003400348D
:1006000000343C34303430343034303430343034EE
:1006100030343C3400340034003400348034C0348E
:100620006034303418340C3406340234003400346E
:1006300000343C340C340C340C340C340C340C3496
:100640000C343C3400340034103438346C34C63448
:1006500000340034003400340034003400340034FA
:1006600000340034003400340034003400340034EA
:1006700000340034FF340034303430341834003463
:1006800000340034003400340034003400340034CA
:10069000003400340034003478340C347C34CC34EE
:1006A000CC347634003400340034E03460346034C8
:1006B0007C346634663466346634DC3400340034AA
:1006C00000340034003400347834CC34C034C034C6
:1006D000CC3478340034003400341C340C340C3402
:1006E0007C34CC34CC34CC34CC3476340034003448
:1006F00000340034003400347834CC34FC34C0345A
:10070000CC34783400340034003438346C34603401
:100710006034F834603460346034F03400340034D1
:1007200000340034003400347634CC34CC34CC344F
:100730007C340C34CC3478340034E03460346034AD
:100740006C347634663466346634E634003400340F
:100750000034183418340034783418341834183409
:1007600018347E340034003400340C340C3400343B
:100770003C340C340C340C340C34CC34CC3478345D
:100780000034E0346034603466346C3478346C3473
:100790006634E634003400340034783418341834C5
:1007A000183418341834183418347E3400340034B3
:1007B0000034003400340034FC34D634D634D6341B
:1007C000D634C634003400340034003400340034ED
:1007D000F834CC34CC34CC34CC34CC340034003485
:1007E00000340034003400347834CC34CC34CC348D
:1007F000CC34783400340034003400340034003415
:10080000DC3466346634663466347C346034F03408
:1008100000340034003400347634CC34CC34CC345E
:10082000CC347C340C341E340034003400340034B6
:10083000EC346E34763460346034F0340034003498
:1008400000340034003400347834CC34603418344C
:10085000CC34783400340034003400342034603434
:10086000FC346034603460346C3438340034003428
:100870000034003400340034CC34CC34CC34CC34A8
:10088000CC34763400340034003400340034003486
:10089000CC34CC34CC34CC347834303400340034E0
:1008A0000034003400340034C634C634D634D63470
:1008B0006C346C34003400340034003400340034C0
:1008C000C6346C34383438346C34C63400340034B4
:1008D00000340034003400346634663466346634E0
:1008E0003C340C341834F034003400340034003418
:1008F000FC348C3418346034C434FC340034003498
:1009000000341C34303430346034C034603430341B
:1009100030341C34003400340034183418341834A3
:1009200018340034183418341834183400340034AF
:100930000034E0343034303418340C34183430346B
:100940003034E0340034003400347334DA34CE34DC
:1009500000340034003400340034003400340034F7
:10096000003400340034103438346C34C634C634A7
:10097000FE340034003400340034003400340034D9
:1009800000340034003400340034003400340034C7
:1009900000340034003400340034003400340034B7
:1009A00000340034003400340034003400340034A7
:1009B0000034003400340034003400340034003497
:100C700000340034003400340A108A140A15820744
:100C80004C340134533400340234B434B0340234BC
:100C900000340A108A140A158207113427343C34B0
:100CA0004C345D346C347834843490349934A234C8
:100CB000AA34B234BA34C034C734CC34D234D73482
:100CC000DC34E034E434E834ED34F034F434F73434
:100CD000FB34FE340A108A140A15820701340334E7
:100CE000063409340B340E341034133415341734ED
:100CF00019341C341E34203422342434263428344D
:100D00002A342C342D342F343134333435343734C1
:100D100039343B343D343F344234443447345E3418
:100D20000A108A140A158207133423342D343334FD
:100D300038343C3440344334463448344A344C34F8
:100D40004E3450346434AF0A2F08463C031DAE2E97
:100D5000AF01831685100230831285060B118A11AC
:100D60000A121D2852316A17EE3274000000CD308D
:100D700072366F37A029B61A00004121432245235D
:100D8000472449254B264D274F285129532A552BB7
:100D9000572C592DB0183200000161316332653390
:100DA000673469356B366D376F387139733A753B17
:100DB000773C793D331A35000000523084008313AC
:100DC00000080319F12E0530F800F701F70BE62EA5
:100DD000F80BE52E2E30F700F70BEC2EEF2E800BE4
:100DE000E32E080013088316360883129300831637
:100DF000140C031CF82E831208002E102E088316E4
:100E000087008312071083163208B6008312F22679
:100E10008316B6018312F2262E102E088316870041
:100E200083120714080083163308B6008312F226D3
:100E30008316B6018312F226080083163308B40025
:100E4000B5013408B6008312F22683163208B600C4
:100E50008312F2260800831685128312851215303C
:100E60008316B2008312FD2608308316B300831266
:100E7000132701308316B300831213278B30831698
:100E8000B3008312132701308316B3008312132794
:100E900075308316B2008312FD268316B3018312C8
:100EA0001327AF308316B300831213275C308316E9
:100EB000B2008312FD26D401D30154085A3C031C0E
:100EC000742F031D672F5308BF3C031C742F520857
:100ED0008316B300831251088316B20083121D27B4
:100EE000D30A0319D40A5D2F83168512831285163F
:100EF000080010308316B600F701FA01B30CB20CEB
:100F0000031C882F3408F7070318FA0A3508FA0774
:100F1000FA0CF70CF90CF80CB60B7E2F83120800B4
:100F20003008840083133118831754088000840A22
:100F30008001B00A0319B10A0800831603178C1741
:100F40000C140000000083120C087F390319E12FF4
:100F50000313D10003170D080313D20003170F0862
:100F60000313D3005108D4009027520803178D00B3
:100F70000313530803178F0083168C170C140000FB
:100F8000000083120C0D0E0D7F390319E12F03139E
:100F9000D10003170D080313D20003170F08031322
:100FA000D3005108D4009027520803178D00031373
:100FB000530803178F008D0A03198F0A03139D2FFF
:060FC000031703130800F3
:10100000FB0008307A078A007B08093E03188A0A29
:1010100082000034003400340034003400340034E2
:101020000034003400340034F234F234003400343C
:1010300000340034E034E03400340034E034E03490
:1010400000342834FE34FE3428342834FE34FE3490
:101050002834003448345C34D634D63474342434E0
:1010600000340034C634663430341834CC34C634DA
:1010700000340A344E34EE34B234B234FE344C34DC
:10108000003400348034C034603420340034003400
:101090000034003400348234C6347C3438340034B4
:1010A00000340034003438347C34C63482340034A4
:1010B0000034103454347C34383438347C34543470
:1010C00010340034103410347C347C341034103438
:1010D0000034003400340034063407340134003462
:1010E0000034003410341034103410341034103400
:1010F0000034003400340034063406340034003444
:10110000003440346034303418340C340634023443
:10111000003400347C34FE34A2349234FE347C3407
:101120000034003402340234FE34FE3422340234FB
:10113000003400346234F23492348A34CE3446348B
:10114000003400346C34FE3492349234C634443467
:1011500000340834FE34FE3468342834183418342B
:10116000003400349C34BE34A234A234E634E43477
:10117000003400344C34DE3492349234FE347C3407
:1011800000340034C034E034BE349E34C034C03443
:10119000003400346C34FE3492349234FE346C34B7
:1011A000003400347C34FE3492349234F6346434A7
:1011B0000034003400340034243424340034003447
:1011C0000034003400340034263427340134003431
:1011D0000034003482348234C6346C3438341034F1
:1011E000003400342834283428342834283428346F
:1011F00000340034103438346C34C63482348234D1
:10120000003400346034F0349A348A34C0344034CA
:10121000003400347434F234B2348234FE347C341A
:10122000003400343E347E34D034D0347E343E3406
:10123000003400346C34FE3492349234FE34FE3484
:10124000003400344434C63482348234FE347C3476
:101250000034003438347C34C6348234FE34FE34F6
:10126000003400348234823492349234FE34FE34BA
:10127000003400348034803490349034FE34FE34B2
:10128000003400345C34DE3492348234FE347C34F6
:1012900000340034FE34FE3410341034FE34FE3496
:1012A0000034003400348234FE34FE34823400349E
:1012B000003400348034FC34FE3482340634043488
:1012C000003400348234C6346C343834FE34FE3496
:1012D000003400340234023402340234FE34FE346A
:1012E0000034FE34FE34603430346034FE34FE3476
:1012F00000340034FE34FE3438347034FE34FE34AE
:10130000003400347C34FE3482348234FE347C3445
:10131000003400346034F03490349034FE34FE34C1
:10132000003400347A34FE3486348434FC34783427
:10133000003400346234F6349C349834FE34FE3485
:10134000003400344C34DE3492349234F634643455
:101350000034003480348034FE34FE3480348034F1
:1013600000340034FC34FE3402340234FE34FC34E5
:1013700000340034F834FC3406340634FC34F834D9
:101380000034FE34FE340C3418340C34FE34FE3495
:1013900000340034C634EE3438343834EE34C634D5
:1013A00000340034E034F0341E341E34F034E034C1
:1013B00000340034C234E234B2349A348E34863489
:1013C00000340034003482348234FE34FE3400347D
:1013D000003440346034303418340C340634023471
:1013E000003400340034FE34FE348234823400345D
:1013F000003400348034C03460342034003400348D
:101400000034013401340134013401340134013435
:10141000013400348034C03460342034003400346B
:10142000003400341E343E342A342A342E3404343A
:10143000003400340C341E34123412347E347E34C2
:101440000034003400342234223422343E341C343C
:10145000003400347E347E34123412341E340C34A2
:101460000034003418343A342A342A343E341C34DC
:1014700000340034503450347E343E341034003460
:10148000003400343E343F34253425343D3419349F
:10149000003400340E341E34103410347E347E3464
:1014A00000340034003402345E345E3412340034CC
:1014B000003400345E345F340134013401340034CC
:1014C00000340034023416341C3408347E347E3444
:1014D00000340034003402347E347E34423400342C
:1014E00000341E343E3438341C3418343E343E3418
:1014F000003400341E343E34203420343E343E3434
:10150000003400341C343E34223422343E341C3443
:101510000034003418343C34243424343F343F3411
:10152000003400343F343F34243424343C34183401
:101530000034003410343034203420343E343E340F
:101540000034003424342E342A342A343A34123409
:1015500000340034223422347E347C34203420346D
:10156000003400343E343E34023402343E343C34E1
:101570000034003438343C34063406343C343834D7
:10158000003438343E340E341C340E343E34383497
:1015900000340034223436341C341C3436342234C3
:1015A000003400343C343E34073405343D3439349F
:1015B00000340034223432343A342E342634223487
:1015C00000340034003482348234FE34FE3400347B
:1015D000003400344434923492347A343E34163435
:1015E000023400340034FE34FE3482348234003459
:1015F00000340034103430347F347F3430341034CD
:10160000003418341834183418347E343C34183408
:10161000003400340034003400340034003400342A
:10162000003400340034003400340034003400341A
:10163000003400340034003400340034003400340A
:1016400000340034003400340034003400340034FA
:1016500000340034003400340034003400340034EA
:1016600000340034003400340034003400340034DA
:1016700000340034003400340034003400340034CA
:1016800000340034003400340034003400340034BA
:1016900000340034003400340034003400340034AA
:1016A000003400340034003400340034003400349A
:1016B000003400340034003400340034003400348A
:1016C000003400340034003400340034003400347A
:1016D000003400340034003400340034003400346A
:1016E000003400340034003400340034003400345A
:1016F000003400340034003400340034003400344A
:101700000034003400340034003400340034003439
:101710000034003400340034003400340034003429
:101720000034003400340034003400340034003419
:101730000034003400340034003400340034003409
:1017400000340034003400340034003400340034F9
:1017500000340034003400340034003400340034E9
:1017600000340034003400340034003400340034D9
:1017700000340034003400340034003400340034C9
:1017800000340034003400340034003400340034B9
:1017900000340034003400340034003400340034A9
:1017A0000034003400340034003400340034003499
:1017B0000034003400340034003400340034003489
:1017C0000034003400340034003400340034003479
:1017D0000034003400340034003400340034003469
:1017E0000034003400340034003400340034003459
:1017F0000034003400340034003400340034003449
:101800000034003400340034003400340034003438
:101810000034FB000C307A078A007B08123E031864
:101820008A0A82000034003400340034003400346A
:1018300000345F340034003400340734003407349B
:10184000003414347F3414347F34143424342A3470
:101850007F342A3412342334133408346434623429
:10186000363449345534223450340034053403348A
:101870000034003400341C34223441340034003449
:10188000413422341C340034143408343E340834D7
:101890001434083408343E340834083400345034E6
:1018A0003034003400340834083408340834083440
:1018B0000034603460340034003420341034083490
:1018C000043402343E345134493445343E34003417
:1018D00042347F344034003442346134513449342A
:1018E00046342134413445344B34313418341434C3
:1018F00012347F3410342734453445344534393478
:101900003C344A3449344934303401347134093474
:1019100005340334363449344934493436340634D2
:101920004934493429341E340034363436340034D2
:10193000003400345634363400340034083414345F
:101940002234413400341434143414341434143430
:101950000034413422341434083402340134513414
:101960000934063432344934793441343E347E34D7
:101970001134113411347E347F34493449344934BC
:1019800036343E3441344134413422347F3441349E
:10199000413422341C347F3449344934493441348D
:1019A0007F3409340934093401343E344134493434
:1019B00049347A347F340834083408347F340034AE
:1019C00041347F34413400342034403441343F3496
:1019D00001347F3408341434223441347F344034A9
:1019E0004034403440347F3402340C3402347F3489
:1019F0007F340434083410347F343E34413441346D
:101A000041343E347F3409340934093406343E34D9
:101A10004134513421345E347F340934193429344B
:101A2000463446344934493449343134013401347C
:101A30007F34013401343F344034403440343F3447
:101A40001F342034403420341F343F344034383481
:101A500040343F346334143408341434633407346A
:101A6000083470340834073461345134493445340F
:101A7000433400347F34413441340034023404347C
:101A80000834103420340034413441347F3400347D
:101A900004340234013402340434403440344034D9
:101AA00040344034003401340234043400342034EF
:101AB00054345434543478347F34483444344434C3
:101AC000383438344434443444342034383444349E
:101AD000443448347F34383454345434543418340F
:101AE00008347E340934013402340C345234523414
:101AF00052343E347F3408340434043478340034AF
:101B000044347D34403400342034403444343D3453
:101B100000347F34103428344434003400344134E9
:101B20007F34403400347C34043418340434783442
:101B30007C34083404340434783438344434443441
:101B4000443438347C3414341434143408340834B1
:101B50001434143418347C347C340834043404349D
:101B600008344834543454345434203404343F3426
:101B70004434403420343C344034403420347C34C9
:101B80001C342034403420341C343C344034303451
:101B900040343C34443428341034283444340C3435
:101BA0005034503450343C344434643454344C3421
:101BB00044340034083436344134003400340034C2
:101BC0007F34003400340034413436340834003477
:101BD000103408340834103408347834463441342E
:101BE0004634783400340034003400340034003497
:101BF0000034003400340034003400340034003445
:101C00000034003400340034003400340034003434
:101C10000034003400340034003400340034003424
:101C20000034003400340034003400340034003414
:101C30000034003400340034003400340034003404
:101C400000340034003400340034003400340034F4
:101C500000340034003400340034003400340034E4
:101C600000340034003400340034003400340034D4
:101C700000340034003400340034003400340034C4
:101C800000340034003400340034003400340034B4
:101C900000340034003400340034003400340034A4
:101CA0000034003400340034003400340034003494
:101CB0000034003400340034003400340034003484
:101CC0000034003400340034003400340034003474
:101CD0000034003400340034003400340034003464
:101CE0000034003400340034003400340034003454
:101CF0000034003400340034003400340034003444
:101D00000034003400340034003400340034003433
:101D10000034003400340034003400340034003423
:101D200000340034AE102E0883168700831287100B
:101D3000AE122E088316870083128716831685122B
:101D400083128512AE112E08831687008312871125
:101D50002E102E088316870083120714AE102E084B
:101D600083168700831287108316851283128516C7
:101D70002E102E0883168700831207140A30D20013
:101D80008A11DD268A15AE102E088316870083126D
:101D900087142330D2008A11DD268A158316851216
:101DA00083128512BC308316B2008A118312FD267D
:101DB0008A152A308316B3008A11831213278A15D5
:101DC0008316851283128516831685128312851257
:101DD000CA308316B2008A118312FD268A15D101FA
:101DE0005108083C031C012F51088A113C268A1512
:101DF000D2008316B3008A11831213278A15D10AE1
:101E0000F02ECB308316B2008A118312FD268A157C
:101E1000D10151081C3C031C202F51088A1149266E
:101E20008A15D2008316B3008A11831213278A15EC
:101E30008316B3018A11831213278A15D10A092F39
:101E4000D1015108213C031C392F51088A116A26FF
:101E50008A15D2008316B3008A11831213278A15BC
:101E600001308316B3008A11831213278A15D10A11
:101E7000212FCC308316B2008A118312FD268A15D9
:101E8000D10151080E3C031C522F51088A11902693
:101E90008A15D2008316B3008A11831213278A157C
:101EA000D10A412FCD308316B2008A118312FD264C
:101EB0008A158316B3018A11831213278A15D0302D
:101EC0008316B2008A118312FD268A158316B30188
:101ED0008A11831213278A1594308316B2008A114F
:101EE0008312FD268A1515308316B2008A118312DB
:101EF000FD268A1508308316B3008A118312132732
:101F00008A1501308316B3008A11831213278A15AC
:101F10008B308316B3008A11831213278A15013080
:101F20008316B3008A11831213278A15753083161E
:101F3000B2008A118312FD268A158316B3018A1115
:101F4000831213278A158F308316B3008A118312E8
:101F500013278A15AA308316B2008A118312FD2630
:101F60008A158316B3018A11831213278A15AF309D
:101F70008316B3008A11831213278A15AF30831694
:101F8000B3008A11831213278A1503308316B30016
:101F90008A11831213278A15AB308316B2008A1177
:101FA0008312FD268A158316B3018A118312132723
:101FB0008A152E102E088316870083120710AF3063
:101FC0008316B3008A11831213278A15831685128C
:0A1FD000831285168A150A16592897
:102000008316851283128512590B5A2815308316B0
:10201000B2000A128312FD260A1652088C3CF80000
:1020200055087802DC00DD015608031C560FDD025E
:102030005C088316B3000A12831213270A160130B4
:102040008316B3000A12831213270A1652088C3C17
:10205000FF3EDC008316B3000A12831213270A1610
:1020600001308316B3000A12831213270A16753043
:102070008316B2000A128312FD260A16510883162F
:10208000B3000A12831213270A1651085307DC0003
:102090005408DD000318DD0A0130DC020030031CA7
:1020A0000130DD025C088316B3000A128312132785
:1020B0000A16B228D908031DB22815308316B200BB
:1020C0000A128312FD260A1608305107DC00831617
:1020D000B3000A12831213270A1601308316B300C5
:1020E0000A12831213270A16083051075307DC001F
:1020F0005408DD000318DD0A0130DC020030031C47
:102100000130DD025C088316B3000A128312132724
:102110000A1601308316B3000A12831213270A1617
:1021200075308316B2000A128312FD260A16520871
:102130008316B3000A12831213270A165208550792
:10214000DC005608DD000318DD0A0130DC02003037
:10215000031C0130DD025C088316B3000A128312EF
:1021600013270A165C308316B2000A128312FD266A
:102170000A16DB01DA0154088316B30083125308F0
:102180008316B200831256088316B50083125508D1
:102190008316B4000A12831279270A167908FA0006
:1021A0005B087A02031CE928031DDA2878085A0222
:1021B0000318E92858088316B300831257088316BA
:1021C000B2000A1283121D270A16DA0A0319DB0A63
:1021D000BB28831685128312851608008316851284
:1021E00083128512550B312915308316B2000A125D
:1021F0008312FD260A1652088C3CD6008316B300C3
:102200000A12831213270A1601308316B3000A122A
:10221000831213270A1652088C3CD6008316B3008B
:102220000A12831213270A1601308316B3000A120A
:10223000831213270A1675308316B2000A1283120E
:10224000FD260A1651088316B3000A1283121327BB
:102250000A1651088316B3000A12831213270A16AE
:102260007029D508031D702915308316B2000A1293
:102270008312FD260A1608305107D6008316B300D4
:102280000A12831213270A1601308316B3000A12AA
:10229000831213270A1608305107D6008316B3009D
:1022A0000A12831213270A1601308316B3000A128A
:1022B000831213270A1675308316B2000A1283128E
:1022C000FD260A1652088316B3000A12831213273A
:1022D0000A1652088316B3000A12831213270A162D
:1022E0005C308316B2000A128312FD260A165408C7
:1022F0008316B300831253088316B2000A128312A6
:102300001D270A1683168512831285160800F70109
:10231000F8015C0803105D18F707F70CF80CDD18DE
:10232000F707F70CF80C5D19F707F70CF80CDD1937
:10233000F707F70CF80C5D1AF707F70CF80CDD1A25
:10234000F707F70CF80C5D1BF707F70CF80CDD1B13
:10235000F707F70CF80C0800EC01ED01EE01EF01B6
:10236000F001F101F201F3010130F4008030F500D9
:10237000831685128312851215308316B2000A1255
:102380008312FD260A1608305E07FC008316B30090
:102390000A12831213270A1601308316B3000A1299
:1023A000831213270A1608305E07063EFF3EFC0024
:1023B0008316B3000A12831213270A1601308316FC
:1023C000B3000A12831213270A1675308316B2005F
:1023D0000A128312FD260A165F088316B3000A123A
:1023E000831213270A1608305F07FC008316B30018
:1023F0000A12831213270A165C308316B2000A12DF
:102400008312FD260A1660081F3C03180A2A60087A
:102410007F3C031C872A20306002E900EA016A0839
:10242000043C031C502AEB016B08073C031C442AA4
:102430008316B301831269088316B200B501053013
:10244000B4000A12831279270A167908FD00780869
:10245000FC006A087C07F8007D08FA000318FA0AF5
:1024600078080A128A1509240A168A1174050319B4
:10247000402A6C306B0784008313000875048000C9
:102480000310F40DEB0A142A0130F4000310F50CCC
:102490006A08043C031D4E2A8030F500EA0A0F2A20
:1024A000E5016508073C031C832A6C30650784003E
:1024B00083130008E6008030E800E7016708053C68
:1024C000031C812A660868050319722A64088316AA
:1024D000B300831263088316B2000A1283121D2709
:1024E0000A167D2A62088316B300831261088316D8
:1024F000B2000A1283121D270A160310E80CE70A1D
:102500005E2AE50A512A8316851283128516080071
:10251000DB01D908031D8A2BDA08031DBA2A5B08E0
:102520005307840083135418831780080319B92AAA
:102530005B08DC000630DD00872178085107DC00ED
:102540005B08530784008313541883170008DD00C9
:102550005C08DE005208DF005D08E0005608E2007B
:102560005508E1005808E4005708E300AC21DB0AF5
:102570008F2A8A2B5A0B8A2B5B08530784008313FC
:1025800054188317800803198A2B5B08DC00063077
:10259000DD00872178085107DC005B0853078400C1
:1025A0008313541883170008DD005C08DE0052080E
:1025B000DF005D08E0005608E2005508E100580819
:1025C000E4005708E3008316851283128512153044
:1025D0008316B2000A128312FD260A165F088C3C8D
:1025E000F83EE9008316B3000A12831213270A1675
:1025F00001308316B3000A12831213270A165F08EC
:102600008C3CFF3EE9008316B3000A1283121327A5
:102610000A1601308316B3000A12831213270A1612
:1026200075308316B2000A128312FD260A165E0860
:102630008316B3000A12831213270A1606305E07A8
:10264000E9008316B3000A12831213270A165C30BE
:102650008316B2000A128312FD260A16E5016508E8
:10266000053C031C842B6508043C031C5B2B2030B9
:102670006002EA008316B30183126A088316B2006F
:10268000B5010530B4000A12831279270A167908B9
:10269000EA007808E90065087807F8007908FA0088
:1026A0000318FA0A78080A128A1509240A168A11E8
:1026B000F800E6005C2BE6018030E800E7016708DF
:1026C000073C031C822B660868050319732B6408FA
:1026D0008316B300831263088316B2000A128312B2
:1026E0001D270A167E2B62088316B3008312610829
:1026F0008316B2000A1283121D270A160310E80C73
:10270000E70A5F2BE50A2F2B8316851283128516A5
:10271000DB0ABC2A5908023C031D7D2DDA08031D83
:10272000582C5B08530784008313541883178008C0
:102730000319572C5B0DF700F70DF70DF830F7056F
:1027400077085107DC005B08530784008313541893
:1027500083170008DD005C08DE005208DF005D081A
:10276000E0005608E2005508E1005808E400570868
:10277000E300831685128312851215308316B2008A
:102780000A128312FD260A1608305E07E900831636
:10279000B3000A12831213270A1601308316B300FE
:1027A0000A12831213270A1608305E07073EE90053
:1027B0008316B3000A12831213270A1601308316F8
:1027C000B3000A12831213270A1675308316B2005B
:1027D0000A128312FD260A165F088316B3000A1236
:1027E000831213270A160C305F07E9008316B30023
:1027F0000A12831213270A165C308316B2000A12DB
:102800008312FD260A16E50165080B3C031C512CBA
:1028100020306002EA008316B30183126A0883162F
:10282000B200B5010C30B4000A12831279270A16DF
:102830007908EA007808E90065087807F80079085F
:10284000FA000318FA0A78080A1233200A16F80068
:10285000E6008030E800E7016708073C031C4F2CC6
:10286000660868050319402C64088316B3008312B8
:1028700063088316B2000A1283121D270A164B2C16
:1028800062088316B300831261088316B2000A122D
:1028900083121D270A160310E80CE70A2C2CE50A00
:1028A000042C8316851283128516DB0A912B7D2D4D
:1028B0005A0B7D2D5B08530784008313541883172C
:1028C000800803197D2D5B0DF700F70DF70DF8302B
:1028D000F70577085107DC005B0853078400831372
:1028E000541883170008DD005C08DE005208DF0082
:1028F0005D08E0005608E2005508E1005808E400D1
:102900005708E300EC01EE01EF018316A001A101DD
:10291000A201A301A401A501A601A701A801A90183
:10292000AA01AB01AC01AD01AE01AF01851283126A
:1029300085128030F0000130F10015308316B200AE
:102940000A128312FD260A165F088C3CF43EF20040
:102950008316B3000A12831213270A160130831656
:10296000B3000A12831213270A165F088C3CFF3E3D
:10297000F2008316B3000A12831213270A160130DD
:102980008316B3000A12831213270A1675308316B2
:10299000B2000A128312FD260A165E088316B300DF
:1029A0000A12831213270A1609305E07F2008316F3
:1029B000B3000A12831213270A1660081F3C03187B
:1029C000E42C60087F3C031C7B2D20306002E90072
:1029D000EA016A080B3C031C2B2DEB016B08073C3A
:1029E000031C1D2D8316B301831269088316B200E0
:1029F000B5010C30B4000A12831279270A1679083F
:102A0000F3007808F2006A087207F8007308FA0009
:102A10000318FA0A78080A1233200A1670050319F7
:102A2000192D6C086B07A03E840083130008710405
:102A300080000310F00CEB0AEE2C8030F000031045
:102A4000F10D6A08073C031D292D1030F1000830F4
:102A5000EC00EA0AE92C5C308316B2000A128312F9
:102A6000FD260A16E50165080F3C031C772D650855
:102A700001390319452DA0306E0784008313000827
:102A8000E6000830ED00EE0A4F2D08306F07A03E3B
:102A9000840083130008E6000430ED00EF0A803064
:102AA000E800E7016D0867020318752D66086805E0
:102AB0000319662D64088316B30083126308831616
:102AC000B2000A1283121D270A16712D620883169E
:102AD000B300831261088316B2000A1283121D2705
:102AE0000A160310E80CE70A522DE50A332D831667
:102AF000851283128516DB0A5A2C590B8E2EDA08A2
:102B0000031DAD2D5B0853078400831354188317EE
:102B100080080319AC2D5B08DC000630DD0087213E
:102B200078085107DC005B085307840083135418AE
:102B300083170008DD005C08DE005208DF005D0836
:102B4000E0005608E2005508E1005808E400570884
:102B5000E300AC21DB0A822D8E2E5A0B8E2E5B08F1
:102B600053078400831354188317800803198E2E8B
:102B70005B0DF700F70DF70DF830F70577085107F3
:102B8000DC005B0853078400831354188317000884
:102B9000DD005C08DE005208DF005D08E00056083A
:102BA000E2005508E1005808E4005708E3008316E6
:102BB00085128312851215308316B2000A12831211
:102BC000FD260A165F088C3CF83EE9008316B30028
:102BD0000A12831213270A1601308316B3000A1251
:102BE000831213270A165F088C3CFF3EE900831608
:102BF000B3000A12831213270A1601308316B3009A
:102C00000A12831213270A1675308316B2000A12AD
:102C10008312FD260A165E088316B3000A12831279
:102C200013270A1608305E07E9008316B3000A125C
:102C3000831213270A165C308316B2000A1283121D
:102C4000FD260A16E5016508073C031C882E203086
:102C50006002FA01F900790DE9007A0DEA00E90D48
:102C6000EA0DE90DEA0DF830E9056508073C69074A
:102C7000F8006A08FA000318FA0A78080A128A1596
:102C800000200A168A11E9006908EA00EB01803089
:102C9000EC000130ED00EE016E08073C031C5C2ED9
:102CA0006A086C050319562E6D08EB040310EC0C32
:102CB0000310ED0DEE0A4C2E6B08F8007808E600C4
:102CC0008030E800E7016708073C031C862E660891
:102CD00068050319772E64088316B300831263080E
:102CE0008316B2000A1283121D270A16822E62086A
:102CF0008316B300831261088316B2000A1283128E
:102D00001D270A160310E80CE70A632EE50A232E96
:0E2D10008316851283128516DB0AAF2D08008C
:10300000840183131F308305FF30AD00AC00AB019A
:10301000AA01AE00B101B00183161F149F141F1541
:103020009F118312A801A9019412AE122E088316D3
:10303000870083122E162E08831687008312AE1186
:103040002E088316870020308312940040308316A8
:1030500094000108C0390738810085308312900040
:103060000030F800043892003F308316920083123B
:103070002E112E0883168700831207110C3097003B
:103080002F30950083161F149F141F159F11831254
:103090001F108B16C0308B040230D100FA30D200E2
:1030A0000A128A11DD260A168A15D10B4E280A1239
:1030B000922E0A16D201D1010A128A112B270A1662
:1030C0008A150230D100FA30D2000A128A11DD26A8
:1030D0000A168A15D10B6328F830D200D1010A12E2
:1030E0008A112B270A168A150230D100FA30D20035
:1030F0000A128A11DD260A168A15D10B76280730A6
:10310000D200E030D1000A128A112B270A168A1544
:103110000230D100FA30D2000A128A11DD260A16D6
:103120008A15D10B8A28D2011F30D1000A128A11C8
:103130002B270A168A150230D100FA30D2000A1263
:103140008A11DD260A168A15D10B9D28D201D101DC
:103150000A128A112B270A168A155A30D1000A3012
:10316000D200D4011430D300D601D5000730D800E6
:10317000E030D700D9018A1100208A151E30D10015
:103180002830D200D4011430D300D601D500D801A4
:103190001F30D7000130D9008A1100208A15323043
:1031A000D1005030D200D4013230D300D601D50046
:1031B000F830D800D7010130D9008A1100208A15D3
:1031C000B2013208633C031C00293208D1000A30E6
:1031D000D200FF30D400E030D300D5018A11EE20B8
:1031E0008A153208D1000A30D200FF30D400E03016
:1031F000D3000130D5008A11EE208A15B20AE128E9
:10320000B1013330B000B23003178D0006308F00AB
:103210000A128A1103139D270A168A15D101043058
:10322000D200D4013330D300D6011F30D500FF3097
:10323000D800D7000230D900DA018A1188228A1515
:10324000D1011430D200D4013330D300F830D6008D
:10325000D501FF30D800D7000130D900DA018A113A
:1032600088228A15D1011E30D200D4013330D30018
:10327000D601D501FF30D800D700D901DA018A1173
:1032800088228A15B1013330B000B73003178D00A2
:1032900006308F000A128A1103139D270A168A1519
:1032A0001430D100D200D4013330D300D6011F3006
:1032B000D500FF30D800D7000230D9000130DA0045
:1032C0008A1188228A151430D1002830D200D40106
:1032D0003330D300F830D600D501FF30D800D70006
:1032E0000130D900DA008A1188228A15B101333001
:1032F000B000BD3003178D0006308F000A128A110E
:1033000003139D270A168A15D1013C30D200D4013F
:103310003330D300D601D501FF30D800D700D90112
:103320000130DA008A1188228A15B1013330B000E9
:10333000CD3003178D0006308F000A128A11031357
:103340009D270A168A15D1014630D200D4013330A8
:10335000D300D601D501FF30D800D700D901013004
:0C336000DA008A1188228A15B429630063
:02400E003A3D39
:00000001FF
