:1000000000308A0042280000FF00030E8301A10097
:100010000A08A0008A010408A2007708A300780853
:10002000A4007908A5007A08A6007B08A70083131E
:1000300083128B1E1D280B193028220884002308E8
:10004000F7002408F8002508F9002608FA00270818
:10005000FB0020088A00210E8300FF0E7F0E09009E
:100060008A110A123328AC0A2C082E3C031D3E28A4
:10007000AC01831685100230831285060B118A119C
:100080000A121D28840183131F308305FF30AB0043
:10009000AA00A901A80183161F149F141F159F1100
:1000A0004D308312AE006130AF007230B0006C3062
:1000B000B1006F30B2006E30B300B40183161F146C
:1000C0009F141F159F1183121F1083160108C0393A
:1000D0000738810083128B16C0308B046E286300B2
:02400E00393D3A
:00000001FF
;PIC16F876
;CRC=162D  CREATED="08-abr-14 11:15"
