:1000000001308A00D6290000FF00030E8301A10001
:100010000A08A0008A010408A2007708A300780853
:10002000A4007908A5007A08A600831383128B1E0A
:100030001B280B192C28220884002308F700240809
:10004000F8002508F9002608FA0020088A00210E89
:100050008300FF0E7F0E09008A110A1296280A10EB
:100060008A100A1182074C340134533400340234AC
:10007000B434B034023400340A108A100A118207F2
:10008000113427343C344C345D346C34783484344B
:1000900090349934A234AA34B234BA34C034C73458
:1000A000CC34D234D734DC34E034E434E834ED34C6
:1000B000F034F434F734FB34FE340A108A100A1199
:1000C000820701340334063409340B340E341034FF
:1000D00013341534173419341C341E3420342234AC
:1000E0002434263428342A342C342D342F3431341B
:1000F00033343534373439343B343D343F3442348F
:10010000443447345E340A108A100A1182071334CB
:1001100023342D34333438343C344034433446347F
:1001200048344A344C344E3450346434AC0A2C08CD
:100130002E3C031DA128AC018316851002308312CA
:1001400085060B118A110A121B28A710270883168F
:10015000870083128710A71227088316870083124F
:1001600087168316851283128512A7112708831616
:1001700087008312871127102708831687008312B0
:1001800007148A110A121F2A1308350893008316D0
:10019000140C031CC8288312080027102708831694
:1001A0008700831207103108B500C420B501C420B0
:1001B00027102708831687008312071408003108C8
:1001C000B500C420B501C4200800A7102708831675
:1001D00087008312871083168512831285162710D5
:1001E00027088316870083120714A7102708831691
:1001F0008700831287148316851283128512BC3000
:10020000B100CD202A30B100DF2083168512831281
:1002100085160A2900008316851283128512CA30BA
:10022000B100CD20AD012D08083C031C1E292D086E
:100230002F20AE00B100DF20AD0A1329CB30B10072
:10024000CD20AD012D081C3C031C2F292D083C207E
:10025000AE00B100DF20B101DF20AD0A2229AD01DF
:100260002D08213C031C3E292D085D20AE00B10065
:10027000DF200130B100DF20AD0A3029CC30B100E1
:10028000CD20AD012D080E3C031C4D292D088320E7
:10029000AE00B100DF20AD0A4229CD30B100CD2043
:1002A000B101DF20D030B100CD20B101DF2094308A
:1002B000B100CD201530B100CD200830B100DF20D5
:1002C0000130B100DF208B30B100DF200130B10000
:1002D000DF207530B100CD20B101DF208F30B100BB
:1002E000DF20AA30B100CD20B101DF20AF30B10056
:1002F000DF20AF30B100DF200330B100DF20AB30B2
:10030000B100CD20B101DF20271027088316870018
:1003100083120710AF30B100DF20831685128312DD
:1003200085168A110A12202A8316851283128512D5
:100330001530B100CD200830B100DF200130B10010
:10034000DF208B30B100DF200130B100DF207530BD
:10035000B100CD20B101DF20AF30B100DF205C3033
:10036000B100CD20B001AF0130085A3C031CCF29A9
:10037000031DBE292F08BF3C031CCF292E08B20045
:100380002D08B1003208B300B4013208B500C42012
:100390003108B500C420AF0A0319B00AB429831686
:1003A0008512831285168A110A12282A8401831362
:1003B0001F308305FF30A700941222309400403094
:1003C000831694008312A7122708831687008312CE
:1003D00027162708831687008312A711270883167C
:1003E00087001F149F141F159F1183129412A712C8
:1003F000270883168700831227162708831687008D
:100400008312A711270883168700203083129400D7
:100410004030831694001F149F141F159F118312E0
:100420001F1083160108C0390738810083128B160C
:10043000C0308B048514831685108312A528E52807
:10044000FF30AB00AA00A901A801AE01AD019429BB
:04045000282A6300F3
:02400E003A3D39
:00000001FF
;PIC16F876
;CRC=F1C5  CREATED="17-abr-14 22:40"
