:1000000016308A00742E0000FF00030E8301A10049
:100010000A08A0008A010408A2007708A300780853
:10002000A4007908A5007A08A6007B08A70083131E
:1000300083128B1E1D280B193028220884002308E8
:10004000F7002408F8002508F9002608FA00270818
:10005000FB0020088A00210E8300FF0E7F0E09009E
:100060008A110A12A32EFB0000307A078A007B084F
:100070003C3E03188A0A8200003400340034003405
:1000800000340034003400340034003400340034D0
:1000900000343034783478347834303430340034C8
:1000A000303430340034003400346634663466341E
:1000B000243400340034003400340034003400347C
:1000C00000346C346C34FE346C346C346C34FE3478
:1000D0006C346C3400340034303430347C34C0340C
:1000E000C03478340C340C34F834303430340034C8
:1000F000003400340034C434CC3418343034603428
:10010000CC348C340034003400347034D834D834D7
:100110007034FA34DE34CC34DC34763400340034D9
:10012000003430343034303460340034003400343F
:10013000003400340034003400340C3418343034CB
:10014000603460346034303418340C34003400349B
:1001500000346034303418340C340C340C3418341B
:1001600030346034003400340034003400346634F9
:100170003C34FF343C346634003400340034003402
:10018000003400340034183418347E3418341834F1
:1001900000340034003400340034003400340034BF
:1001A00000340034003400343834383460340034DF
:1001B00000340034003400340034FE3400340034A1
:1001C000003400340034003400340034003400348F
:1001D000003400340034003438343834003400340F
:1001E00000340034023406340C34183430346034B3
:1001F000C03480340034003400347C34C634CE340F
:10020000DE34D634F634E634C6347C34003400347C
:10021000003410343034F03430343034303430344E
:100220003034FC340034003400347834CC34CC34F2
:100230000C34183430346034CC34FC3400340034A2
:1002400000347834CC340C340C3438340C340C3462
:10025000CC3478340034003400340C341C343C3456
:100260006C34CC34FE340C340C341E340034003482
:100270000034FC34C034C034C034F8340C340C3492
:10028000CC34783400340034003438346034C03432
:10029000C034F834CC34CC34CC347834003400342A
:1002A0000034FE34C634C63406340C3418343034CA
:1002B000303430340034003400347834CC34CC342E
:1002C000CC347834CC34CC34CC347834003400346E
:1002D00000347834CC34CC34CC347C3418341834F6
:1002E0003034703400340034003400340034383496
:1002F00038340034003438343834003400340034B6
:1003000000340034003438343834003400343834A5
:10031000383418343034003400340C341834303469
:100320006034C0346034303418340C340034003459
:1003300000340034003400347E3400347E34003421
:100340000034003400340034003460343034183465
:100350000C3406340C341834303460340034003437
:1003600000347834CC340C34183430343034003425
:10037000303430340034003400347C34C634C63475
:10038000DE34DE34DE34C034C0347C340034003437
:10039000003430347834CC34CC34CC34FC34CC34E9
:1003A000CC34CC34003400340034FC34663466344D
:1003B00066347C34663466346634FC34003400348D
:1003C00000343C346634C634C034C034C034C6341F
:1003D00066343C34003400340034F8346C34663411
:1003E00066346634663466346C34F8340034003471
:1003F0000034FE346234603464347C3464346034F9
:100400006234FE34003400340034FE346634623426
:1004100064347C34643460346034F0340034003448
:1004200000343C346634C634C034C034CE34C634B0
:1004300066343E34003400340034CC34CC34CC3414
:10044000CC34FC34CC34CC34CC34CC340034003414
:100450000034783430343034303430343034303464
:10046000303478340034003400341E340C340C340E
:100470000C340C34CC34CC34CC34783400340034E8
:100480000034E63466346C346C3478346C346C3458
:100490006634E634003400340034F03460346034C0
:1004A00060346034623466346634FE3400340034C0
:1004B0000034C634EE34FE34FE34D634C634C6348A
:1004C000C634C634003400340034C634C634E6348E
:1004D000F634FE34DE34CE34C634C6340034003450
:1004E000003438346C34C634C634C634C634C634EA
:1004F0006C343834003400340034FC3466346634F0
:1005000066347C34603460346034F0340034003459
:10051000003438346C34C634C634C634CE34DE3499
:100520007C340C341E3400340034FC3466346634BD
:1005300066347C346C3466346634E634003400341B
:1005400000347834CC34CC34C03470341834CC34E7
:10055000CC347834003400340034FC34B4343034D7
:100560003034303430343034303478340034003483
:100570000034CC34CC34CC34CC34CC34CC34CC3447
:10058000CC347834003400340034CC34CC34CC3423
:10059000CC34CC34CC34CC347834303400340034E3
:1005A0000034C634C634C634C634D634D6346C347B
:1005B0006C346C34003400340034CC34CC34CC345F
:1005C000783430347834CC34CC34CC340034003407
:1005D0000034CC34CC34CC34CC3478343034303473
:1005E00030347834003400340034FE34CE3498345F
:1005F0001834303460346234C634FE34003400348D
:1006000000343C34303430343034303430343034EE
:1006100030343C3400340034003400348034C0348E
:100620006034303418340C3406340234003400346E
:1006300000343C340C340C340C340C340C340C3496
:100640000C343C3400340034103438346C34C63448
:1006500000340034003400340034003400340034FA
:1006600000340034003400340034003400340034EA
:1006700000340034FF340034303430341834003463
:1006800000340034003400340034003400340034CA
:10069000003400340034003478340C347C34CC34EE
:1006A000CC347634003400340034E03460346034C8
:1006B0007C346634663466346634DC3400340034AA
:1006C00000340034003400347834CC34C034C034C6
:1006D000CC3478340034003400341C340C340C3402
:1006E0007C34CC34CC34CC34CC3476340034003448
:1006F00000340034003400347834CC34FC34C0345A
:10070000CC34783400340034003438346C34603401
:100710006034F834603460346034F03400340034D1
:1007200000340034003400347634CC34CC34CC344F
:100730007C340C34CC3478340034E03460346034AD
:100740006C347634663466346634E634003400340F
:100750000034183418340034783418341834183409
:1007600018347E340034003400340C340C3400343B
:100770003C340C340C340C340C34CC34CC3478345D
:100780000034E0346034603466346C3478346C3473
:100790006634E634003400340034783418341834C5
:1007A000183418341834183418347E3400340034B3
:1007B0000034003400340034FC34D634D634D6341B
:1007C000D634C634003400340034003400340034ED
:1007D000F834CC34CC34CC34CC34CC340034003485
:1007E00000340034003400347834CC34CC34CC348D
:1007F000CC34783400340034003400340034003415
:10080000DC3466346634663466347C346034F03408
:1008100000340034003400347634CC34CC34CC345E
:10082000CC347C340C341E340034003400340034B6
:10083000EC346E34763460346034F0340034003498
:1008400000340034003400347834CC34603418344C
:10085000CC34783400340034003400342034603434
:10086000FC346034603460346C3438340034003428
:100870000034003400340034CC34CC34CC34CC34A8
:10088000CC34763400340034003400340034003486
:10089000CC34CC34CC34CC347834303400340034E0
:1008A0000034003400340034C634C634D634D63470
:1008B0006C346C34003400340034003400340034C0
:1008C000C6346C34383438346C34C63400340034B4
:1008D00000340034003400346634663466346634E0
:1008E0003C340C341834F034003400340034003418
:1008F000FC348C3418346034C434FC340034003498
:1009000000341C34303430346034C034603430341B
:1009100030341C34003400340034183418341834A3
:1009200018340034183418341834183400340034AF
:100930000034E0343034303418340C34183430346B
:100940003034E0340034003400347334DA34CE34DC
:1009500000340034003400340034003400340034F7
:10096000003400340034103438346C34C634C634A7
:10097000FE340034003400340034003400340034D9
:1009800000340034003400340034003400340034C7
:1009900000340034003400340034003400340034B7
:1009A00000340034003400340034003400340034A7
:1009B0000034003400340034003400340034003497
:100C700000340034003400340A108A140A15820744
:100C80004C340134533400340234B434B0340234BC
:100C900000340A108A140A158207113427343C34B0
:100CA0004C345D346C347834843490349934A234C8
:100CB000AA34B234BA34C034C734CC34D234D73482
:100CC000DC34E034E434E834ED34F034F434F73434
:100CD000FB34FE340A108A140A15820701340334E7
:100CE000063409340B340E341034133415341734ED
:100CF00019341C341E34203422342434263428344D
:100D00002A342C342D342F343134333435343734C1
:100D100039343B343D343F344234443447345E3418
:100D20000A108A140A158207133423342D343334FD
:100D300038343C3440344334463448344A344C34F8
:100D40004E3450346434AF0A2F08463C031DAE2E97
:100D5000AF01831685100230831285060B118A11AC
:100D60000A121D2852316A17EE3274000000CD308D
:100D700072366F37A029B61A0000483084008313FA
:100D800000080319D12E0530F800F701F70BC62E25
:100D9000F80BC52E2E30F700F70BCC2ECF2E800B84
:100DA000C32E0800130883162408831293008316A9
:100DB000140C031CD82E831208002E102E08831644
:100DC00087008312071083162008A4008312D226FE
:100DD0008316A4018312D2262E102E0883168700B4
:100DE00083120714080083162108A4008312D22658
:100DF0008316A4018312D226080083162108A200BC
:100E0000A3012208A4008312D22683162008A4007E
:100E10008312D2260800831685128312851215309C
:100E20008316A0008312DD2608308316A1008312EA
:100E3000F32601308316A1008312F3268B3083162C
:100E4000A1008312F32601308316A1008312F3263A
:100E500075308316A0008312DD268316A10183124C
:100E6000F326AF308316A1008312F3265C3083167D
:100E7000A0008312DD26CA01C9014A085A3C031C9E
:100E8000542F031D472F4908BF3C031C542F48080B
:100E90008316A100831247088316A0008312FD2643
:100EA000C90A0319CA0A3D2F8316851283128516B3
:100EB000080010308316A400F701FA01A10CA00C61
:100EC000031C682F2208F7070318FA0A2308FA07F9
:100ED000FA0CF70CF90CF80CA40B5E2F8312080027
:100EE000300884008313311883174A088000840A6D
:100EF0008001B00A0319B10A0800831603178C1782
:100F00000C140000000083120C087F390319C12F54
:100F10000313C70003170D080313C80003170F08B6
:100F20000313C9004708CA007027480803178D003B
:100F30000313490803178F0083168C170C14000045
:100F4000000083120C0D0E0D7F390319C12F0313FE
:100F5000C70003170D080313C80003170F08031376
:100F6000C9004708CA007027480803178D000313FB
:100F7000490803178F008D0A03198F0A03137D2F69
:100F8000031703130800F701F80152080310531860
:100F9000F707F70CF80CD318F707F70CF80C5319F0
:100FA000F707F70CF80CD319F707F70CF80C531ADE
:100FB000F707F70CF80CD31AF707F70CF80C531BCC
:100FC000F707F70CF80CD31BF707F70CF80C080021
:10100000FB0008307A078A007B08093E03188A0A29
:1010100082000034003400340034003400340034E2
:101020000034003400340034F234F234003400343C
:1010300000340034E034E03400340034E034E03490
:1010400000342834FE34FE3428342834FE34FE3490
:101050002834003448345C34D634D63474342434E0
:1010600000340034C634663430341834CC34C634DA
:1010700000340A344E34EE34B234B234FE344C34DC
:10108000003400348034C034603420340034003400
:101090000034003400348234C6347C3438340034B4
:1010A00000340034003438347C34C63482340034A4
:1010B0000034103454347C34383438347C34543470
:1010C00010340034103410347C347C341034103438
:1010D0000034003400340034063407340134003462
:1010E0000034003410341034103410341034103400
:1010F0000034003400340034063406340034003444
:10110000003440346034303418340C340634023443
:10111000003400347C34FE34A2349234FE347C3407
:101120000034003402340234FE34FE3422340234FB
:10113000003400346234F23492348A34CE3446348B
:10114000003400346C34FE3492349234C634443467
:1011500000340834FE34FE3468342834183418342B
:10116000003400349C34BE34A234A234E634E43477
:10117000003400344C34DE3492349234FE347C3407
:1011800000340034C034E034BE349E34C034C03443
:10119000003400346C34FE3492349234FE346C34B7
:1011A000003400347C34FE3492349234F6346434A7
:1011B0000034003400340034243424340034003447
:1011C0000034003400340034263427340134003431
:1011D0000034003482348234C6346C3438341034F1
:1011E000003400342834283428342834283428346F
:1011F00000340034103438346C34C63482348234D1
:10120000003400346034F0349A348A34C0344034CA
:10121000003400347434F234B2348234FE347C341A
:10122000003400343E347E34D034D0347E343E3406
:10123000003400346C34FE3492349234FE34FE3484
:10124000003400344434C63482348234FE347C3476
:101250000034003438347C34C6348234FE34FE34F6
:10126000003400348234823492349234FE34FE34BA
:10127000003400348034803490349034FE34FE34B2
:10128000003400345C34DE3492348234FE347C34F6
:1012900000340034FE34FE3410341034FE34FE3496
:1012A0000034003400348234FE34FE34823400349E
:1012B000003400348034FC34FE3482340634043488
:1012C000003400348234C6346C343834FE34FE3496
:1012D000003400340234023402340234FE34FE346A
:1012E0000034FE34FE34603430346034FE34FE3476
:1012F00000340034FE34FE3438347034FE34FE34AE
:10130000003400347C34FE3482348234FE347C3445
:10131000003400346034F03490349034FE34FE34C1
:10132000003400347A34FE3486348434FC34783427
:10133000003400346234F6349C349834FE34FE3485
:10134000003400344C34DE3492349234F634643455
:101350000034003480348034FE34FE3480348034F1
:1013600000340034FC34FE3402340234FE34FC34E5
:1013700000340034F834FC3406340634FC34F834D9
:101380000034FE34FE340C3418340C34FE34FE3495
:1013900000340034C634EE3438343834EE34C634D5
:1013A00000340034E034F0341E341E34F034E034C1
:1013B00000340034C234E234B2349A348E34863489
:1013C00000340034003482348234FE34FE3400347D
:1013D000003440346034303418340C340634023471
:1013E000003400340034FE34FE348234823400345D
:1013F000003400348034C03460342034003400348D
:101400000034013401340134013401340134013435
:10141000013400348034C03460342034003400346B
:10142000003400341E343E342A342A342E3404343A
:10143000003400340C341E34123412347E347E34C2
:101440000034003400342234223422343E341C343C
:10145000003400347E347E34123412341E340C34A2
:101460000034003418343A342A342A343E341C34DC
:1014700000340034503450347E343E341034003460
:10148000003400343E343F34253425343D3419349F
:10149000003400340E341E34103410347E347E3464
:1014A00000340034003402345E345E3412340034CC
:1014B000003400345E345F340134013401340034CC
:1014C00000340034023416341C3408347E347E3444
:1014D00000340034003402347E347E34423400342C
:1014E00000341E343E3438341C3418343E343E3418
:1014F000003400341E343E34203420343E343E3434
:10150000003400341C343E34223422343E341C3443
:101510000034003418343C34243424343F343F3411
:10152000003400343F343F34243424343C34183401
:101530000034003410343034203420343E343E340F
:101540000034003424342E342A342A343A34123409
:1015500000340034223422347E347C34203420346D
:10156000003400343E343E34023402343E343C34E1
:101570000034003438343C34063406343C343834D7
:10158000003438343E340E341C340E343E34383497
:1015900000340034223436341C341C3436342234C3
:1015A000003400343C343E34073405343D3439349F
:1015B00000340034223432343A342E342634223487
:1015C00000340034003482348234FE34FE3400347B
:1015D000003400344434923492347A343E34163435
:1015E000023400340034FE34FE3482348234003459
:1015F00000340034103430347F347F3430341034CD
:10160000003418341834183418347E343C34183408
:10161000003400340034003400340034003400342A
:10162000003400340034003400340034003400341A
:10163000003400340034003400340034003400340A
:1016400000340034003400340034003400340034FA
:1016500000340034003400340034003400340034EA
:1016600000340034003400340034003400340034DA
:1016700000340034003400340034003400340034CA
:1016800000340034003400340034003400340034BA
:1016900000340034003400340034003400340034AA
:1016A000003400340034003400340034003400349A
:1016B000003400340034003400340034003400348A
:1016C000003400340034003400340034003400347A
:1016D000003400340034003400340034003400346A
:1016E000003400340034003400340034003400345A
:1016F000003400340034003400340034003400344A
:101700000034003400340034003400340034003439
:101710000034003400340034003400340034003429
:101720000034003400340034003400340034003419
:101730000034003400340034003400340034003409
:1017400000340034003400340034003400340034F9
:1017500000340034003400340034003400340034E9
:1017600000340034003400340034003400340034D9
:1017700000340034003400340034003400340034C9
:1017800000340034003400340034003400340034B9
:1017900000340034003400340034003400340034A9
:1017A0000034003400340034003400340034003499
:1017B0000034003400340034003400340034003489
:1017C0000034003400340034003400340034003479
:1017D0000034003400340034003400340034003469
:1017E0000034003400340034003400340034003459
:1017F0000034003400340034003400340034003449
:101800000034003400340034003400340034003438
:101810000034FB000C307A078A007B08123E031864
:101820008A0A82000034003400340034003400346A
:1018300000345F340034003400340734003407349B
:10184000003414347F3414347F34143424342A3470
:101850007F342A3412342334133408346434623429
:10186000363449345534223450340034053403348A
:101870000034003400341C34223441340034003449
:10188000413422341C340034143408343E340834D7
:101890001434083408343E340834083400345034E6
:1018A0003034003400340834083408340834083440
:1018B0000034603460340034003420341034083490
:1018C000043402343E345134493445343E34003417
:1018D00042347F344034003442346134513449342A
:1018E00046342134413445344B34313418341434C3
:1018F00012347F3410342734453445344534393478
:101900003C344A3449344934303401347134093474
:1019100005340334363449344934493436340634D2
:101920004934493429341E340034363436340034D2
:10193000003400345634363400340034083414345F
:101940002234413400341434143414341434143430
:101950000034413422341434083402340134513414
:101960000934063432344934793441343E347E34D7
:101970001134113411347E347F34493449344934BC
:1019800036343E3441344134413422347F3441349E
:10199000413422341C347F3449344934493441348D
:1019A0007F3409340934093401343E344134493434
:1019B00049347A347F340834083408347F340034AE
:1019C00041347F34413400342034403441343F3496
:1019D00001347F3408341434223441347F344034A9
:1019E0004034403440347F3402340C3402347F3489
:1019F0007F340434083410347F343E34413441346D
:101A000041343E347F3409340934093406343E34D9
:101A10004134513421345E347F340934193429344B
:101A2000463446344934493449343134013401347C
:101A30007F34013401343F344034403440343F3447
:101A40001F342034403420341F343F344034383481
:101A500040343F346334143408341434633407346A
:101A6000083470340834073461345134493445340F
:101A7000433400347F34413441340034023404347C
:101A80000834103420340034413441347F3400347D
:101A900004340234013402340434403440344034D9
:101AA00040344034003401340234043400342034EF
:101AB00054345434543478347F34483444344434C3
:101AC000383438344434443444342034383444349E
:101AD000443448347F34383454345434543418340F
:101AE00008347E340934013402340C345234523414
:101AF00052343E347F3408340434043478340034AF
:101B000044347D34403400342034403444343D3453
:101B100000347F34103428344434003400344134E9
:101B20007F34403400347C34043418340434783442
:101B30007C34083404340434783438344434443441
:101B4000443438347C3414341434143408340834B1
:101B50001434143418347C347C340834043404349D
:101B600008344834543454345434203404343F3426
:101B70004434403420343C344034403420347C34C9
:101B80001C342034403420341C343C344034303451
:101B900040343C34443428341034283444340C3435
:101BA0005034503450343C344434643454344C3421
:101BB00044340034083436344134003400340034C2
:101BC0007F34003400340034413436340834003477
:101BD000103408340834103408347834463441342E
:101BE0004634783400340034003400340034003497
:101BF0000034003400340034003400340034003445
:101C00000034003400340034003400340034003434
:101C10000034003400340034003400340034003424
:101C20000034003400340034003400340034003414
:101C30000034003400340034003400340034003404
:101C400000340034003400340034003400340034F4
:101C500000340034003400340034003400340034E4
:101C600000340034003400340034003400340034D4
:101C700000340034003400340034003400340034C4
:101C800000340034003400340034003400340034B4
:101C900000340034003400340034003400340034A4
:101CA0000034003400340034003400340034003494
:101CB0000034003400340034003400340034003484
:101CC0000034003400340034003400340034003474
:101CD0000034003400340034003400340034003464
:101CE0000034003400340034003400340034003454
:101CF0000034003400340034003400340034003444
:101D00000034003400340034003400340034003433
:101D10000034003400340034003400340034003423
:101D200000340034AE102E0883168700831287100B
:101D3000AE122E088316870083128716831685122B
:101D400083128512AE112E08831687008312871125
:101D50002E102E088316870083120714AE102E084B
:101D600083168700831287108316851283128516C7
:101D70002E102E0883168700831207140A30C8001D
:101D80008A11BD268A15AE102E088316870083128D
:101D900087142330C8008A11BD268A158316851240
:101DA00083128512BC308316A0008A118312DD26AF
:101DB0008A152A308316A1008A118312F3268A1508
:101DC0008316851283128516831685128312851257
:101DD000CA308316A0008A118312DD268A15C70136
:101DE0004708083C031C012F47088A113C268A1526
:101DF000C8008316A1008A118312F3268A15C70A28
:101E0000F02ECB308316A0008A118312DD268A15AE
:101E1000C70147081C3C031C202F47088A1149268C
:101E20008A15C8008316A1008A118312F3268A1529
:101E30008316A1018A118312F3268A15C70A092F76
:101E4000C7014708213C031C392F47088A116A261D
:101E50008A15C8008316A1008A118312F3268A15F9
:101E600001308316A1008A118312F3268A15C70A4E
:101E7000212FCC308316A0008A118312DD268A150B
:101E8000C70147080E3C031C522F47088A119026B1
:101E90008A15C8008316A1008A118312F3268A15B9
:101EA000C70A412FCD308316A0008A118312DD2688
:101EB0008A158316A1018A118312F3268A15D03060
:101EC0008316A0008A118312DD268A158316A101CC
:101ED0008A118312F3268A1594308316A0008A1182
:101EE0008312DD268A1515308316A0008A1183120D
:101EF000DD268A1508308316A1008A118312F32685
:101F00008A1501308316A1008A118312F3268A15DF
:101F10008B308316A1008A118312F3268A150130B3
:101F20008316A1008A118312F3268A157530831651
:101F3000A0008A118312DD268A158316A1018A1159
:101F40008312F3268A158F308316A1008A1183121B
:101F5000F3268A15AA308316A0008A118312DD2683
:101F60008A158316A1018A118312F3268A15AF30D0
:101F70008316A1008A118312F3268A15AF308316C7
:101F8000A1008A118312F3268A1503308316A1005B
:101F90008A118312F3268A15AB308316A0008A11AA
:101FA0008312DD268A158316A1018A118312F32676
:101FB0008A152E102E088316870083120710AF3063
:101FC0008316A1008A118312F3268A1583168512BF
:0A1FD000831285168A110A16B62E38
:1020000083168512831285124F0B5A2815308316BA
:10201000A0000A128312DD260A1648088C3CF8003C
:102020004B087802D200D3014C08031C4C0FD3029A
:1020300052088316A1000A128312F3260A160130F1
:102040008316A1000A128312F3260A1648088C3C54
:10205000FF3ED2008316A1000A128312F3260A164D
:1020600001308316A1000A128312F3260A16753076
:102070008316A0000A128312DD260A16470883166B
:10208000A1000A128312F3260A1647084907D20054
:102090004A08D3000318D30A0130D2020030031CCF
:1020A0000130D30252088316A1000A128312F326CC
:1020B0000A16B228CF08031DB22815308316A000D7
:1020C0000A128312DD260A1608304707D20083164B
:1020D000A1000A128312F3260A1601308316A1000A
:1020E0000A128312F3260A16083047074907D2005E
:1020F0004A08D3000318D30A0130D2020030031C6F
:102100000130D30252088316A1000A128312F3266B
:102110000A1601308316A1000A128312F3260A164A
:1021200075308316A0000A128312DD260A164808AD
:102130008316A1000A128312F3260A1648084B07D9
:10214000D2004C08D3000318D30A0130D202003069
:10215000031C0130D30252088316A1000A12831215
:10216000F3260A165C308316A0000A128312DD26BD
:102170000A16D101D0014A088316A100831249082A
:102180008316A00083124C088316A30083124B0809
:102190008316A2000A12831259270A167908FA0038
:1021A00051087A02031CE928031DDA287808500236
:1021B0000318E9284E088316A10083124D088316E0
:1021C000A0000A128312FD260A16D00A0319D10AAA
:1021D000BB28831685128312851608008316851284
:1021E000831285124B0B312915308316A0000A1279
:1021F0008312DD260A1648088C3CCC008316A10009
:102200000A128312F3260A1601308316A1000A125D
:102210008312F3260A1648088C3CCC008316A100D2
:102220000A128312F3260A1601308316A1000A123D
:102230008312F3260A1675308316A0000A12831241
:10224000DD260A1647088316A1000A128312F32618
:102250000A1647088316A1000A128312F3260A16EB
:102260007029CB08031D702915308316A0000A12AF
:102270008312DD260A1608304707CC008316A1001A
:102280000A128312F3260A1601308316A1000A12DD
:102290008312F3260A1608304707CC008316A100E4
:1022A0000A128312F3260A1601308316A1000A12BD
:1022B0008312F3260A1675308316A0000A128312C1
:1022C000DD260A1648088316A1000A128312F32697
:1022D0000A1648088316A1000A128312F3260A166A
:1022E0005C308316A0000A128312DD260A164A0803
:1022F0008316A100831249088316A0000A128312D4
:10230000FD260A1683168512831285160800E2013F
:10231000E301E401E501E601E701E801E90101303B
:10232000EA008030EB008316851283128512153087
:102330008316A0000A128312DD260A1608305407FD
:10234000EC008316A1000A128312F3260A1601304C
:102350008316A1000A128312F3260A1608305407C6
:10236000063EFF3EEC008316A1000A128312F326FC
:102370000A1601308316A1000A128312F3260A16E8
:1023800075308316A0000A128312DD260A1655083E
:102390008316A1000A128312F3260A160830550785
:1023A000EC008316A1000A128312F3260A165C3091
:1023B0008316A0000A128312DD260A1656081F3C57
:1023C0000318E52956087F3C031C622A2030560278
:1023D000DF00E0016008043C031C2B2AE1016108D6
:1023E000073C031C1F2A8316A10183125F08831672
:1023F000A000A3010530A2000A12831259270A1671
:102400007908ED007808EC0060086C07F8006D08AA
:10241000FA000318FA0A78080A128A1509240A161B
:102420008A116A0503191B2A62306107840083132D
:1024300000086B0480000310EA0DE10AEF29013067
:10244000EA000310EB0C6008043C031D292A8030CD
:10245000EB00E00AEA29DB015B08073C031C5E2A6B
:1024600062305B07840083130008DC008030DE00EC
:10247000DD015D08053C031C5C2A5C085E05031950
:102480004D2A5A088316A100831259088316A0000A
:102490000A128312FD260A16582A58088316A1002C
:1024A000831257088316A0000A128312FD260A160B
:1024B0000310DE0CDD0A392ADB0A2C2A831685126A
:1024C000831285160800D101CF08031D692BD0089F
:1024D000031D972A51084907840083134A1883175C
:1024E00080080319962A5108D2000630D3000A1238
:1024F000C3270A1678084707D20051084907840005
:1025000083134A1883170008D3005208D4004808E0
:10251000D5005308D6004C08D8004B08D7004E0809
:10252000DA004D08D9008721D10A6A2A692B500B9D
:10253000692B51084907840083134A1883178008C0
:102540000319692B5108D2000630D3000A12C327A1
:102550000A1678084707D2005108490784008313F8
:102560004A1883170008D3005208D4004808D50041
:102570005308D6004C08D8004B08D7004E08DA00A4
:102580004D08D900831685128312851215308316E3
:10259000A0000A128312DD260A1655088C3CF83E6C
:1025A000DF008316A1000A128312F3260A160130F7
:1025B0008316A1000A128312F3260A1655088C3CD2
:1025C000FF3EDF008316A1000A128312F3260A16CB
:1025D00001308316A1000A128312F3260A16753001
:1025E0008316A0000A128312DD260A1654088316E9
:1025F000A1000A128312F3260A1606305407DF00E0
:102600008316A1000A128312F3260A165C30831681
:10261000A0000A128312DD260A16DB015B08053CC6
:10262000031C632B5B08043C031C3A2B203056022E
:10263000E0008316A101831260088316A000A301A5
:102640000530A2000A12831259270A167908E00001
:102650007808DF005B087807F8007908FA000318AB
:10266000FA0A78080A128A1509240A168A11F8004B
:10267000DC003B2BDC018030DE00DD015D08073C27
:10268000031C612B5C085E050319522B5A08831644
:10269000A100831259088316A0000A128312FD2696
:1026A0000A165D2B58088316A1008312570883165B
:1026B000A0000A128312FD260A160310DE0CDD0AA2
:1026C0003E2BDB0A0E2B8316851283128516D10A48
:1026D000992A4F08023C031D602DD008031D372C9A
:1026E00051084907840083134A1883178008031987
:1026F000362C510DF700F70DF70DF830F705770878
:102700004707D20051084907840083134A188317EA
:102710000008D3005208D4004808D5005308D6005A
:102720004C08D8004B08D7004E08DA004D08D900F5
:10273000831685128312851215308316A0000A12A3
:102740008312DD260A1608305407DF008316A10025
:102750000A128312F3260A1601308316A1000A1208
:102760008312F3260A1608305407073EDF0083164B
:10277000A1000A128312F3260A1601308316A10063
:102780000A128312F3260A1675308316A0000A1265
:102790008312DD260A1655088316A1000A12831239
:1027A000F3260A160C305507DF008316A1000A1223
:1027B0008312F3260A165C308316A0000A128312D5
:1027C000DD260A16DB015B080B3C031C302C203095
:1027D0005602E0008316A101831260088316A00050
:1027E000A3010C30A2000A12831259270A16790895
:1027F000E0007808DF005B087807F8007908FA0045
:102800000318FA0A78080A1233200A16F800DC00C6
:102810008030DE00DD015D08073C031C2E2C5C08C7
:102820005E0503191F2C5A088316A100831259084C
:102830008316A0000A128312FD260A162A2C5808B5
:102840008316A100831257088316A0000A12831270
:10285000FD260A160310DE0CDD0A0B2CDB0AE32B27
:102860008316851283128516D10A702B602D500BAA
:10287000602D51084907840083134A188317800884
:102880000319602D510DF700F70DF70DF830F7051E
:1028900077084707D20051084907840083134A1874
:1028A00083170008D3005208D4004808D500530805
:1028B000D6004C08D8004B08D7004E08DA004D0867
:1028C000D900E201E401E501E601E701E801E901DF
:1028D000EA01EB01EC01ED01EE01EF01F001F10184
:1028E000F201F301F401F5018316851283128512BA
:1028F0008030F6000130FC0015308316A0000A126B
:102900008312DD260A1655088C3CF43E8316A0007F
:10291000A1000A128312F3260A1601308316A100C1
:102920000A128312F3260A1655088C3CFF3E8316C2
:10293000A000A1000A128312F3260A1601308316A2
:10294000A1000A128312F3260A1675308316A0001E
:102950000A128312DD260A1654088316A1000A12F1
:102960008312F3260A16093054078316A000A1002B
:102970000A128312F3260A1656081F3C0318C32CAA
:1029800056087F3C031C5E2D20305602DF00E0011C
:1029900060080B3C031C0E2DE1016108073C031C81
:1029A000002D8316A10183125F088316A000A301E6
:1029B0000C30A2000A12831259270A1679088316CE
:1029C000A1007808A0008312600883162007F80091
:1029D0002108FA000318FA0A78080A128312332031
:1029E0000A1676050319FC2C62086107663E84000E
:1029F000831300087C0480000310F60CE10ACD2C40
:102A00008030F6000310FC0D6008073C031D0C2D00
:102A10001030FC000830E200E00AC82C5C3083165D
:102A2000A0000A128312DD260A16DB015B080F3CA8
:102A3000031C5A2D5B0801390319282D66306407E1
:102A4000840083130008DC000830E300E40A322D20
:102A500008306507663E840083130008DC000430FC
:102A6000E300E50A8030DE00DD0163085D02031843
:102A7000582D5C085E050319492D5A088316A100DC
:102A8000831259088316A0000A128312FD260A1623
:102A9000542D58088316A100831257088316A000EE
:102AA0000A128312FD260A160310DE0CDD0A352DEC
:102AB000DB0A162D8316851283128516D10A392C4E
:102AC0004F0B732ED008031D922D51084907840027
:102AD00083134A18831780080319912D5108D200D7
:102AE0000630D3000A12C3270A1678084707D20017
:102AF00051084907840083134A1883170008D3003C
:102B00005208D4004808D5005308D6004C08D80015
:102B10004B08D7004E08DA004D08D9008721D10AAA
:102B2000652D732E500B732E5108490784008313B3
:102B30004A18831780080319732E510DF700F70DFB
:102B4000F70DF830F70577084707D2005108490715
:102B5000840083134A1883170008D3005208D40056
:102B60004808D5005308D6004C08D8004B08D700B9
:102B70004E08DA004D08D90083168512831285129B
:102B800015308316A0000A128312DD260A16550896
:102B90008C3CF83EDF008316A1000A128312F32654
:102BA0000A1601308316A1000A128312F3260A16B0
:102BB00055088C3CFF3EDF008316A1000A128312E9
:102BC000F3260A1601308316A1000A128312F32697
:102BD0000A1675308316A0000A128312DD260A1623
:102BE00054088316A1000A128312F3260A1608302D
:102BF0005407DF008316A1000A128312F3260A1677
:102C00005C308316A0000A128312DD260A16DB014F
:102C10005B08073C031C6D2E20305602FA01F900B8
:102C2000790DDF007A0DE000DF0DE00DDF0DE00D26
:102C3000F830DF055B08073C5F07F8006008FA0022
:102C40000318FA0A78080A128A1500200A168A114F
:102C5000DF005F08E000E1018030E2000130E300C6
:102C6000E4016408073C031C412E60086205031957
:102C70003B2E6308E1040310E20C0310E30DE40AA9
:102C8000312E6108F8007808DC008030DE00DD01BC
:102C90005D08073C031C6B2E5C085E0503195C2E67
:102CA0005A088316A100831259088316A0000A123D
:102CB0008312FD260A16672E58088316A100831278
:102CC00057088316A0000A128312FD260A16031065
:102CD000DE0CDD0A482EDB0A082E831685128312CD
:102CE0008516D10A942D0800840183131F308305B3
:102CF000FF30AD00AC00AB01AA01AE00B101B001E4
:102D000083161F149F141F159F118312A801A90178
:102D10009412AE122E088316870083122E162E08E8
:102D2000831687008312AE112E0883168700203089
:102D3000831294004030831694000108C03907388C
:102D400081001F149F141F159F1183121F108B16D3
:102D5000C0308B040230C700FA30C8000A12BD260A
:102D60000A16C70BAC2E0A128A15922E0A168A1161
:102D7000C801C7010A120B270A160230C700FA3031
:102D8000C8000A12BD260A16C70BBF2EF830C800AD
:102D9000C7010A120B270A160230C700FA30C80012
:102DA0000A12BD260A16C70BCE2E0730C800E03027
:102DB000C7000A120B270A160230C700FA30C800F3
:102DC0000A12BD260A16C70BDE2EC8011F30C70027
:102DD0000A120B270A160230C700FA30C8000A127E
:102DE000BD260A16C70BED2EC801C7010A120B2714
:102DF0000A165A30C7000A30C800CA011430C90088
:102E0000CC01CB000730CE00E030CD00CF01002058
:102E10001E30C7002830C800CA011430C900CC01D8
:102E2000CB00CE011F30CD000130CF00002032306A
:102E3000C7005030C800CA013230C900CC01CB00F5
:102E4000F830CE00CD010130CF000020B2013208B1
:102E5000633C031C422F3208C7000A30C800FF3011
:102E6000CA00E030C900CB01EE203208C7000A30AA
:102E7000C800FF30CA00E030C9000130CB00EE20AE
:102E8000B20A272FB1013330B000B23003178D00E2
:102E900006308F000A1203137D270A16C70104307B
:102EA000C800CA013330C900CC011F30CB00FF304D
:102EB000CE00CD000230CF00D0016322C701143014
:102EC000C800CA013330C900F830CC00CB01FF3054
:102ED000CE00CD000130CF00D0016322C7011E30EB
:102EE000C800CA013330C900CC01CB01FF30CE008D
:102EF000CD00CF01D0016322B1013330B000B73033
:102F000003178D0006308F000A1203137D270A165F
:102F10001430C700C800CA013330C900CC011F30CB
:102F2000CB00FF30CE00CD000230CF000130D0000A
:102F300063221430C7002830C800CA013330C900EA
:102F4000F830CC00CB01FF30CE00CD000130CF00F7
:102F5000D00063221430C7003C30C800CA013330AF
:102F6000C900CC01CB01FF30CE00CD00CF01013034
:082F7000D0006322BA2F6300B8
:02400E003A3D39
:00000001FF
