:100000000C940A030C9427030C9427030C942703E5
:100010000C9427030C9427030C9427030C942703B8
:100020000C9427030C9427030C9427030C942703A8
:100030000C9427030C9427030C9427030C94270398
:100040000C9427030C9427030C9427030C94270388
:100050000C94F4060C9427030C9427030C942703A8
:100060000C9427030C9427030C9427030C94270368
:100070000C9459070C9427030C94270300000000EC
:1000800000000000000000000000000000183C3CE0
:100090003C1818001818000000666666240000006E
:1000A0000000000000000000006C6CFE6C6C6CFE38
:1000B0006C6C00000018187CC6C2C07C0686C67C2A
:1000C00018180000000000C2C60C183066C60000F8
:1000D000000000386C6C3876DCCCCC760000001860
:1000E0001818300000000000000000000000000CA4
:1000F000183030303030180C000000000030180C80
:100100000C0C0C0C183000000000000000663CFFD6
:100110003C6600000000000000000018187E18185F
:100120000000000000000000000000000018181887
:10013000300000000000000000FE00000000000091
:10014000000000000000000000001818000000007F
:100150000002060C183060C080000000000000386B
:100160006CC6C6D6C6C66C380000000000183878C9
:1001700018181818187E00000000007CC6060C181D
:100180003060C6FE00000000007CC606063C060685
:10019000C67C00000000000C1C3C6CCCFE0C0C1E4D
:1001A0000000000000FEC0C0C0FC0606C67C0000C7
:1001B0000000003860C0C0FCC6C6C67C000000005D
:1001C00000FEC6060C183030303000000000007C05
:1001D000C6C6C67CC6C6C67C00000000007CC6C67B
:1001E000C67E06060C78000000000000181800000B
:1001F0000018180000000000000018180000001887
:10020000183000000000000C183060C06030180C7E
:1002100000000000000000007E00007E00000000E2
:100220000000006030180C060C1830600000000060
:10023000007CC6C60C181800181800000000007CCE
:10024000C6C6DEDEDEDCC07C000000000010386CBC
:10025000C6C6FEC6C6C60000000000FC6666667C18
:10026000666666FC00000000003C66C2C0C0C0C2FA
:10027000663C0000000000F86C66666666666CF816
:100280000000000000FE66626878686266FE00009A
:10029000000000FE66626878686060F000000000A0
:1002A000003C66C2C0C0DEC6663A0000000000C660
:1002B000C6C6C6FEC6C6C6C600000000003C18186A
:1002C00018181818183C00000000001E0C0C0C0C2C
:1002D0000CCCCC780000000000E6666C6C786C6C8E
:1002E00066E60000000000F060606060606266FE2C
:1002F0000000000000C6EEFED6C6C6C6C6C6000098
:10030000000000C6E6F6FEDECEC6C6C6000000004F
:10031000007CC6C6C6C6C6C6C67C0000000000FC7F
:100320006666667C606060F000000000007CC6C607
:10033000C6C6C6D6DE7C0E00000000FC6666667C83
:100340006C6666E600000000007CC6C660380CC61D
:10035000C67C00000000007E7E5A18181818183C51
:100360000000000000C6C6C6C6C6C6C6C67C0000E1
:10037000000000C6C6C6C6C6C66C38100000000025
:1003800000C6C6C6C6D6D6FE6C6C0000000000C60D
:10039000C6C67C387CC6C6C600000000006666661D
:1003A000663C1818183C0000000000FEC68C18308F
:1003B00060C2C6FE00000000003C303030303030FB
:1003C000303C000000000080C0E070381C0E0602C7
:1003D00000000000003C0C0C0C0C0C0C0C3C000051
:1003E00010386CC600000000000000000000000093
:1003F0000000000000000000000000FF0030180CAA
:1004000000000000000000000000000000000000EC
:10041000780C7CCCCC760000000000E06060786C4A
:100420006666667C00000000000000007CC6C0C05C
:10043000C67C00000000001C0C0C3C6CCCCCCC76C4
:1004400000000000000000007CC6FEC0C67C00006A
:100450000000001C3632307C303030780000000064
:100460000000000076CCCCCC7C0CCC78000000E006
:1004700060606C76666666E6000000000018180092
:1004800038181818183C00000000000606000E0678
:1004900006060666663C000000E06060666C786CEC
:1004A00066E6000000000038181818181818183CE4
:1004B0000000000000000000ECFED6D6D6D60000FA
:1004C000000000000000DC66666666660000000052
:1004D000000000007CC6C6C6C67C0000000000000C
:1004E0000000DC6666667C6060F0000000000000D2
:1004F00076CCCCCC7C0C0C1E000000000000DC761E
:10050000666060F000000000000000007CC6701C07
:10051000C67C0000000000103030FC303030361C4B
:100520000000000000000000CCCCCCCCCC76000059
:10053000000000000000C6C6C66C381000000000B5
:1005400000000000C6C6D6D6FE6C00000000000009
:100550000000C66C38386CC60000000000000000C7
:10056000C6C6C6C67E060C78000000000000FECCA1
:10057000183066FE00000000000E181818701818D9
:10058000180E00000000001818181818181818186D
:100590000000000000701818180E181818700000DD
:1005A0000076DC00000000000000000000000000F9
:1005B00000000010386CC6C6FE00000013232D3367
:1005C000383C404346484A4C4E5064010306090BF0
:1005D0000E10131517191C1E20222426282A2C2D34
:1005E0002F31333537393B3D3F4244475E11273C7D
:1005F0004C5D6C78849099A2AAB2BAC0C7CCD2D70D
:10060000DCE0E4E8EDF0F4F7FBFE4C01530002B44B
:10061000B002000011241FBECFEFD4E0DEBFCDBF7B
:1006200011E0A0E0B1E0ECE6F0E102C005900D922F
:10063000A631B107D9F714E0A6E1B1E001C01D92DF
:10064000AE37B107E1F70E946A060C9434080C94A7
:1006500000002A98229A2D9A259A2B98239A2F984F
:10066000279A2E9A299A219A81E58CBD81E08DBD29
:100670008DB508958EBD0DB407FEFDCF0895299860
:100680008EBD0DB407FEFDCF1EBC0DB407FEFDCF21
:10069000299A08958EBD0DB407FEFDCF1EBC0DB482
:1006A00007FEFDCF08959EBD0DB407FEFDCF8EBDA4
:1006B0000DB407FEFDCF08952B9A00002B980895E6
:1006C0002A982B9A299A80E49CE90197F1F72A9AB3
:1006D0008EE591E020E931E0F9013197F1F70197DA
:1006E000D9F72B988CEB0E943F038AE28EBD0DB4A4
:1006F00007FEFDCF1EBC0DB407FEFDCF2B9A0000F8
:100700002B988AEC0E943F03EAE0F6E084918EBDCC
:100710000DB407FEFDCF1EBC0DB407FEFDCF319614
:1007200086E0E331F80791F78BEC0E943F03EDEE92
:10073000F5E084918EBD0DB407FEFDCF1EBC0DB457
:1007400007FEFDCF1EBC0DB407FEFDCF1EBC0DB4D1
:1007500007FEFDCF319686E0EA30F80751F7EBEC63
:10076000F5E091E084918EBD0DB407FEFDCF1EBC77
:100770000DB407FEFDCF9EBD0DB407FEFDCF1EBC20
:100780000DB407FEFDCF319685E0ED3EF80751F739
:100790008CEC0E943F03ECEBF5E084918EBD0DB430
:1007A00007FEFDCF1EBC0DB407FEFDCF319685E0E0
:1007B000EB3CF80791F78DEC0E943F031EBC0DB493
:1007C00007FEFDCF1EBC0DB407FEFDCF80ED0E94DD
:1007D0003F031EBC0DB407FEFDCF1EBC0DB407FECB
:1007E000FDCF84E90E943F0385E10E943F0388E03A
:1007F0008EBD0DB407FEFDCF1EBC0DB407FEFDCFB0
:1008000081E08EBD0DB407FEFDCF1EBC0DB407FE0A
:10081000FDCF8BE88EBD0DB407FEFDCF1EBC0DB421
:1008200007FEFDCF81E08EBD0DB407FEFDCF1EBCDF
:100830000DB407FEFDCF85E70E943F031EBC0DB43B
:1008400007FEFDCF1EBC0DB407FEFDCF8FE88EBDA9
:100850000DB407FEFDCF1EBC0DB407FEFDCF8AEA26
:100860000E943F031EBC0DB407FEFDCF1EBC0DB49D
:1008700007FEFDCF8FEA8EBD0DB407FEFDCF1EBC77
:100880000DB407FEFDCF8FEA8EBD0DB407FEFDCF80
:100890001EBC0DB407FEFDCF83E08EBD0DB407FE78
:1008A000FDCF1EBC0DB407FEFDCF8BEA0E943F03B7
:1008B0001EBC0DB407FEFDCF1EBC0DB407FEFDCF60
:1008C00029988FEA8EBD0DB407FEFDCF1EBC0DB476
:1008D00007FEFDCF2B9A08950F931F93CF93DF93BD
:1008E0008C012B9885E10E943F0388E08EBD0DB4FA
:1008F00007FEFDCF1EBC0DB407FEFDCF81E08EBD0F
:100900000DB407FEFDCF1EBC0DB407FEFDCF8BE876
:100910008EBD0DB407FEFDCF1EBC0DB407FEFDCF8E
:1009200081E08EBD0DB407FEFDCF1EBC0DB407FEE9
:10093000FDCF85E70E943F031EBC0DB407FEFDCF2F
:100940001EBC0DB407FEFDCF8FEA8EBD0DB407FEB1
:10095000FDCF1EBC0DB407FEFDCF8CE50E943F030A
:10096000C0E0D0E0C8010E94530321968AE5C03C54
:10097000D807C1F72B9ADF91CF911F910F9108955E
:10098000DF92EF92FF920F931F93CF93DF93182F75
:10099000062FF42E2B9885E10E943F03185F1EBDA1
:1009A00018500DB407FEFDCF1EBC0DB407FEFDCFE1
:1009B00081E08EBD0DB407FEFDCF1EBC0DB407FE59
:1009C000FDCF115F1EBD0DB407FEFDCF1EBC0DB4E3
:1009D00007FEFDCF81E08EBD0DB407FEFDCF1EBC2E
:1009E0000DB407FEFDCF85E70E943F030EBD0DB499
:1009F00007FEFDCF1EBC0DB407FEFDCF023A60F42A
:100A0000035F0EBD0DB407FEFDCF1EBC0DB407FE87
:100A1000FDCF9EE0E92E0CC08FEA8EBD0DB407FE1F
:100A2000FDCF1EBC0DB407FEFDCF80EBE82EE01A13
:100A30008CE50E943F038EE0F89EE0011124C4542F
:100A4000D140FF2419C0FE01D49000E010E8812FAE
:100A50008D2129F0809116019091170104C0809199
:100A60000B0190910C010E9453030F5F083011F0AD
:100A70001695EDCFF3942196FE1428F32B9ADF916F
:100A8000CF911F910F91FF90EF90DF900895DB01C0
:100A900054E030E05150E52FF0E0EE0FFF1FE35F30
:100AA000FE4F0190F081E02D20E0662777276E1B36
:100AB0007F0B03C02F5F860F971F8E179F07D0F7FE
:100AC000420F31F0FD01E30FF11D205D20833F5FF8
:100AD000552301F7FD01E30FF11D805D80833F5F2A
:100AE000A30FB11D1C920895FF920F931F93CF93F4
:100AF000DF93F82E062FEA0110E00BC033E0880FD9
:100B0000991F3A95E1F78F0D602F21E00E94C004F4
:100B10001F5F812F90E0FE01E80FF91F4081442301
:100B200069F7DF91CF911F910F91FF9008955F9228
:100B30006F927F928F929F92AF92BF92CF92DF92ED
:100B4000EF92FF920F931F93CF93DF937C014901A4
:100B50002FEAC22EC61A9EE0592E88E0782E740E17
:100B60006624639405E1A02EA40E9FC040E050E0EF
:100B7000D701EC91E59DF0011124E40FF51FE45439
:100B8000F140649190E820E030E0892F8623F9015C
:100B900014E0EE0FFF1F1A95E1F7882349F0E40FE8
:100BA000F51FEE0FFF1FE258FC4F9182808208C0B4
:100BB000E40FF51FEE0FFF1FE258FC4F1182108269
:100BC0002F5F3F4F2830310511F09695DECF4F5FF4
:100BD0005F4F4E30510561F679EFB72EBC0C67E0E0
:100BE000D62EF8942B9885E10E943F037EBC0DB46D
:100BF00007FEFDCF1EBC0DB407FEFDCF6EBC0DB4CD
:100C000007FEFDCF1EBC0DB407FEFDCFAEBC0DB47C
:100C100007FEFDCF1EBC0DB407FEFDCF6EBC0DB4AC
:100C200007FEFDCF1EBC0DB407FEFDCF85E70E9479
:100C30003F03BEBC0DB407FEFDCF1EBC0DB407FEC6
:100C4000FDCFCEBC0DB407FEFDCF1EBC0DB407FE1C
:100C5000FDCF2B9A7894F8942B988CE50E943F0353
:100C6000C0E0D0E00D2D10E054E0000F111F5A95A8
:100C7000E1F7F801EC0FFD1FEE0FFF1FE258FC4FEC
:100C8000808191810E9453032196CE30D10589F74E
:100C90002B9A7894DA94B394BFEFDB1609F0A1CFC6
:100CA0000894E11CF11CE8EFCE0ED7018C9188234B
:100CB00009F05CCFDF91CF911F910F91FF90EF90E2
:100CC000DF90CF90BF90AF909F908F907F906F906C
:100CD0005F9008950F931F93DF93CF93CDB7DEB747
:100CE000A0970FB6F894DEBF0FBECDBF80EF82B9DC
:100CF00080E185B918B880E38BB911B88EEB84B95F
:100D000017B88AE38AB91092C00028E92093C1007D
:100D10009EE39093C2001092C50083E38093C400C9
:100D20001092C8002093C9009093CA001092CD0081
:100D30008093CC000E9429030E9460038FEF9FEFF5
:100D400090930C0180930B011092170110921601E1
:100D500088E090E00E946C045D985C98F8942C9870
:100D600086E08EBD0DB407FEFDCF8EB52C9A78942B
:100D7000F8942C9887EC8EBD0DB407FEFDCF8EB590
:100D80002C9A7894F8942C9885E08EBD0DB407FECB
:100D9000FDCF8EB58FEF8EBD0DB407FEFDCF0EB427
:100DA00000FCF9CF2C9A789480E091E060E040E07C
:100DB0002FEF3FEF0E9497058E010F5F1F4F789432
:100DC00080917A0390917B03A0917C03B0917D0385
:100DD000B80141E00E944705C80164E640E02FEFFA
:100DE0003FEF0E949705EBCF1F920F920FB60F9225
:100DF00011242F933F938F939F93AF93BF93EF93C0
:100E0000FF93E091B902F0E08091C600E654FD4FF7
:100E100080838091B9028F5F8093B9028091B9027B
:100E20008631D0F18091BA02873321F590E020E03D
:100E300030E0F901E654FD4F8081980F2F5F3F4F5E
:100E400025313105B1F78091CF02981719F410922E
:100E5000B90222C020E030E0F9012F5F3F4FD901F5
:100E6000A654BD4F8C91E654FD4F8083253131054A
:100E700099F70FC020E030E0F9012F5F3F4FD90113
:100E8000A654BD4F8C91E654FD4F8083253131052A
:100E900099F785E18093B902FF91EF91BF91AF91EE
:100EA0009F918F913F912F910F900FBE0F901F90A8
:100EB00018951F920F920FB60F9211242F933F9304
:100EC0004F935F938F939F93AF93BF93EF93FF9352
:100ED000E091B801F0E08091CE00E85EFE4F8083A3
:100EE0008091B8018F5F8093B8018091B8018638F6
:100EF00008F4ABC080911801873309F094C090E0EA
:100F000020E030E0F901E85EFE4F8081980F2F5F0E
:100F10003F4F25383105B1F780919D01981709F0B1
:100F200072C05091190120911A0140911B01922F1A
:100F300080E0342F332720E0820F931F850F911D0F
:100F4000AA2797FDA095BA2F80937A0390937B03ED
:100F5000A0937C03B0937D0390E0E92FF0E0DF01E4
:100F6000A35EBE4F8C91E754FE4F80839F5F903805
:100F7000A1F72C9886E08EBD0DB407FEFDCF8EB58F
:100F80002C9A80E991E00197F1F780917A03909192
:100F90007B03A0917C03B0917D03F8942C9882E0B0
:100FA0008EBD0DB407FEFDCF8EB580911B018EBDA9
:100FB0000DB407FEFDCF8EB580911A018EBD0DB424
:100FC00007FEFDCF8EB5809119018EBD0DB407FED1
:100FD000FDCF8EB520E030E0F901E754FE4F80816F
:100FE0008EBD0DB407FEFDCF8EB52F5F3F4F20386D
:100FF000310591F72C9A789480E29EE40197F1F7FD
:101000001092B80122C020E030E0F9012F5F3F4F7D
:10101000D901A85EBE4F8C91E85EFE4F80832538D3
:10102000310599F70FC020E030E0F9012F5F3F4F05
:10103000D901A85EBE4F8C91E85EFE4F80832538B3
:10104000310599F785E88093B801FF91EF91BF9141
:10105000AF919F918F915F914F913F912F910F9001
:0C1060000FBE0F901F901895F894FFCF62
:10106C00536B61736F77616E650000FFFF0A00645C
:06107C0000E8031027004C
:00000001FF
